{
	"contractName": "OrganisationEvents",
	"abi": [
		{
			"inputs": [],
			"stateMutability": "nonpayable",
			"type": "constructor"
		},
		{
			"anonymous": false,
			"inputs": [
				{
					"indexed": true,
					"internalType": "address",
					"name": "previousOwner",
					"type": "address"
				},
				{
					"indexed": true,
					"internalType": "address",
					"name": "newOwner",
					"type": "address"
				}
			],
			"name": "OwnershipTransferred",
			"type": "event"
		},
		{
			"anonymous": false,
			"inputs": [
				{
					"indexed": false,
					"internalType": "address",
					"name": "account",
					"type": "address"
				}
			],
			"name": "Paused",
			"type": "event"
		},
		{
			"anonymous": false,
			"inputs": [
				{
					"indexed": false,
					"internalType": "address",
					"name": "account",
					"type": "address"
				}
			],
			"name": "Unpaused",
			"type": "event"
		},
		{
			"inputs": [],
			"name": "PAUSER_ROLE",
			"outputs": [
				{
					"internalType": "bytes32",
					"name": "",
					"type": "bytes32"
				}
			],
			"stateMutability": "view",
			"type": "function",
			"constant": true
		},
		{
			"inputs": [
				{
					"internalType": "uint256",
					"name": "",
					"type": "uint256"
				}
			],
			"name": "events",
			"outputs": [
				{
					"internalType": "address",
					"name": "organiser",
					"type": "address"
				},
				{
					"internalType": "string",
					"name": "eID",
					"type": "string"
				}
			],
			"stateMutability": "view",
			"type": "function",
			"constant": true
		},
		{
			"inputs": [],
			"name": "owner",
			"outputs": [
				{
					"internalType": "address",
					"name": "",
					"type": "address"
				}
			],
			"stateMutability": "view",
			"type": "function",
			"constant": true
		},
		{
			"inputs": [],
			"name": "paused",
			"outputs": [
				{
					"internalType": "bool",
					"name": "",
					"type": "bool"
				}
			],
			"stateMutability": "view",
			"type": "function",
			"constant": true
		},
		{
			"inputs": [],
			"name": "renounceOwnership",
			"outputs": [],
			"stateMutability": "nonpayable",
			"type": "function"
		},
		{
			"inputs": [
				{
					"internalType": "address",
					"name": "newOwner",
					"type": "address"
				}
			],
			"name": "transferOwnership",
			"outputs": [],
			"stateMutability": "nonpayable",
			"type": "function"
		},
		{
			"inputs": [],
			"name": "pause",
			"outputs": [],
			"stateMutability": "nonpayable",
			"type": "function"
		},
		{
			"inputs": [
				{
					"internalType": "address",
					"name": "organiser",
					"type": "address"
				},
				{
					"internalType": "string",
					"name": "eventName",
					"type": "string"
				},
				{
					"internalType": "string",
					"name": "ageGroup",
					"type": "string"
				},
				{
					"internalType": "string",
					"name": "startDate",
					"type": "string"
				},
				{
					"internalType": "string",
					"name": "endDate",
					"type": "string"
				},
				{
					"internalType": "string",
					"name": "activityType",
					"type": "string"
				},
				{
					"internalType": "string",
					"name": "description",
					"type": "string"
				},
				{
					"internalType": "string",
					"name": "eventId",
					"type": "string"
				}
			],
			"name": "createOrgEvent",
			"outputs": [],
			"stateMutability": "payable",
			"type": "function",
			"payable": true
		},
		{
			"inputs": [
				{
					"internalType": "address",
					"name": "orgAddress",
					"type": "address"
				}
			],
			"name": "getOrgEventIDs",
			"outputs": [
				{
					"internalType": "string[]",
					"name": "",
					"type": "string[]"
				}
			],
			"stateMutability": "view",
			"type": "function",
			"constant": true
		},
		{
			"inputs": [
				{
					"internalType": "string",
					"name": "_eID",
					"type": "string"
				}
			],
			"name": "getEventInfoById",
			"outputs": [
				{
					"internalType": "string[6]",
					"name": "",
					"type": "string[6]"
				}
			],
			"stateMutability": "view",
			"type": "function",
			"constant": true
		},
		{
			"inputs": [
				{
					"internalType": "address",
					"name": "_user",
					"type": "address"
				},
				{
					"internalType": "string",
					"name": "eId",
					"type": "string"
				}
			],
			"name": "addNewAttendee",
			"outputs": [],
			"stateMutability": "payable",
			"type": "function",
			"payable": true
		},
		{
			"inputs": [
				{
					"internalType": "string",
					"name": "eId",
					"type": "string"
				}
			],
			"name": "getAllEventAttendees",
			"outputs": [
				{
					"internalType": "address[]",
					"name": "",
					"type": "address[]"
				}
			],
			"stateMutability": "view",
			"type": "function",
			"constant": true
		},
		{
			"inputs": [],
			"name": "unpause",
			"outputs": [],
			"stateMutability": "nonpayable",
			"type": "function"
		},
		{
			"inputs": [
				{
					"internalType": "address",
					"name": "user",
					"type": "address"
				}
			],
			"name": "getUserEventIDs",
			"outputs": [
				{
					"internalType": "string[]",
					"name": "",
					"type": "string[]"
				}
			],
			"stateMutability": "view",
			"type": "function",
			"constant": true
		},
		{
			"inputs": [],
			"name": "getNumberOfEvents",
			"outputs": [
				{
					"internalType": "uint256",
					"name": "",
					"type": "uint256"
				}
			],
			"stateMutability": "view",
			"type": "function",
			"constant": true
		}
	],
	"bytecode": "0x608060405234801561001057600080fd5b5061002d61002261004c60201b60201c565b61005460201b60201c565b60008060146101000a81548160ff021916908315150217905550610118565b600033905090565b60008060009054906101000a900473ffffffffffffffffffffffffffffffffffffffff169050816000806101000a81548173ffffffffffffffffffffffffffffffffffffffff021916908373ffffffffffffffffffffffffffffffffffffffff1602179055508173ffffffffffffffffffffffffffffffffffffffff168173ffffffffffffffffffffffffffffffffffffffff167f8be0079c531659141344cd1fd0a4f28419497f9722a3daafe3b4186f6b6457e060405160405180910390a35050565b61234b80620001286000396000f3fe6080604052600436106100e85760003560e01c8063715018a61161008a578063a52676bf11610059578063a52676bf146102a3578063def34370146102e0578063e63ab1e91461031d578063f2fde38b14610348576100e8565b8063715018a61461022e5780638456cb59146102455780638da5cb5b1461025c578063a241ed9d14610287576100e8565b8063454d64c2116100c6578063454d64c21461016d578063531774ff146101895780635b551856146101c65780635c975abb14610203576100e8565b806309ac3bb5146100ed5780630b791430146101185780633f4ba83a14610156575b600080fd5b3480156100f957600080fd5b50610102610371565b60405161010f9190611eb9565b60405180910390f35b34801561012457600080fd5b5061013f600480360381019061013a9190611993565b61037e565b60405161014d929190611d4d565b60405180910390f35b34801561016257600080fd5b5061016b61045a565b005b610187600480360381019061018291906117a4565b6104e0565b005b34801561019557600080fd5b506101b060048036038101906101ab9190611952565b610623565b6040516101bd9190611d9f565b60405180910390f35b3480156101d257600080fd5b506101ed60048036038101906101e89190611952565b6107da565b6040516101fa9190611d7d565b60405180910390f35b34801561020f57600080fd5b50610218610986565b6040516102259190611de3565b60405180910390f35b34801561023a57600080fd5b5061024361099c565b005b34801561025157600080fd5b5061025a610a24565b005b34801561026857600080fd5b50610271610aaa565b60405161027e9190611d32565b60405180910390f35b6102a1600480360381019061029c91906117f8565b610ad3565b005b3480156102af57600080fd5b506102ca60048036038101906102c5919061177b565b610c1b565b6040516102d79190611dc1565b60405180910390f35b3480156102ec57600080fd5b506103076004803603810190610302919061177b565b610f40565b6040516103149190611dc1565b60405180910390f35b34801561032957600080fd5b506103326111b2565b60405161033f9190611dfe565b60405180910390f35b34801561035457600080fd5b5061036f600480360381019061036a919061177b565b6111d6565b005b6000600180549050905090565b6001818154811061038e57600080fd5b90600052602060002090600902016000915090508060000160009054906101000a900473ffffffffffffffffffffffffffffffffffffffff16908060070180546103d7906120aa565b80601f0160208091040260200160405190810160405280929190818152602001828054610403906120aa565b80156104505780601f1061042557610100808354040283529160200191610450565b820191906000526020600020905b81548152906001019060200180831161043357829003601f168201915b5050505050905082565b6104626112ce565b73ffffffffffffffffffffffffffffffffffffffff16610480610aaa565b73ffffffffffffffffffffffffffffffffffffffff16146104d6576040517f08c379a00000000000000000000000000000000000000000000000000000000081526004016104cd90611e79565b60405180910390fd5b6104de6112d6565b565b60005b60018054905081101561061e57818051906020012060018281548110610532577f4e487b7100000000000000000000000000000000000000000000000000000000600052603260045260246000fd5b90600052602060002090600902016007016040516105509190611d1b565b6040518091039020141561060b5760018181548110610598577f4e487b7100000000000000000000000000000000000000000000000000000000600052603260045260246000fd5b9060005260206000209060090201600801839080600181540180825580915050600190039060005260206000200160009091909190916101000a81548173ffffffffffffffffffffffffffffffffffffffff021916908373ffffffffffffffffffffffffffffffffffffffff1602179055505b80806106169061210d565b9150506104e3565b505050565b61062b6114de565b6106336114de565b60005b6001805490508110156107d057838051906020012060018281548110610685577f4e487b7100000000000000000000000000000000000000000000000000000000600052603260045260246000fd5b90600052602060002090600902016007016040516106a39190611d1b565b604051809103902014156107bd57600181815481106106eb577f4e487b7100000000000000000000000000000000000000000000000000000000600052603260045260246000fd5b9060005260206000209060090201600101600680602002604051908101604052809291906000905b828210156107b6578382018054610729906120aa565b80601f0160208091040260200160405190810160405280929190818152602001828054610755906120aa565b80156107a25780601f10610777576101008083540402835291602001916107a2565b820191906000526020600020905b81548152906001019060200180831161078557829003601f168201915b505050505081526020019060010190610713565b5050505091505b80806107c89061210d565b915050610636565b5080915050919050565b606060005b6001805490508110156109455782805190602001206001828154811061082e577f4e487b7100000000000000000000000000000000000000000000000000000000600052603260045260246000fd5b906000526020600020906009020160070160405161084c9190611d1b565b604051809103902014156109325760018181548110610894577f4e487b7100000000000000000000000000000000000000000000000000000000600052603260045260246000fd5b906000526020600020906009020160080180548060200260200160405190810160405280929190818152602001828054801561092557602002820191906000526020600020905b8160009054906101000a900473ffffffffffffffffffffffffffffffffffffffff1673ffffffffffffffffffffffffffffffffffffffff16815260200190600101908083116108db575b5050505050915050610981565b808061093d9061210d565b9150506107df565b506040517f08c379a000000000000000000000000000000000000000000000000000000000815260040161097890611e99565b60405180910390fd5b919050565b60008060149054906101000a900460ff16905090565b6109a46112ce565b73ffffffffffffffffffffffffffffffffffffffff166109c2610aaa565b73ffffffffffffffffffffffffffffffffffffffff1614610a18576040517f08c379a0000000000000000000000000000000000000000000000000000000008152600401610a0f90611e79565b60405180910390fd5b610a226000611377565b565b610a2c6112ce565b73ffffffffffffffffffffffffffffffffffffffff16610a4a610aaa565b73ffffffffffffffffffffffffffffffffffffffff1614610aa0576040517f08c379a0000000000000000000000000000000000000000000000000000000008152600401610a9790611e79565b60405180910390fd5b610aa861143b565b565b60008060009054906101000a900473ffffffffffffffffffffffffffffffffffffffff16905090565b6060610add6114de565b6040518060c001604052808a8152602001898152602001888152602001878152602001868152602001858152509050600060405180608001604052808c73ffffffffffffffffffffffffffffffffffffffff168152602001838152602001858152602001848152509050600181908060018154018082558091505060019003906000526020600020906009020160009091909190915060008201518160000160006101000a81548173ffffffffffffffffffffffffffffffffffffffff021916908373ffffffffffffffffffffffffffffffffffffffff160217905550602082015181600101906006610bd1929190611505565b506040820151816007019080519060200190610bee929190611558565b506060820151816008019080519060200190610c0b9291906115de565b5050505050505050505050505050565b6060600060018054905067ffffffffffffffff811115610c64577f4e487b7100000000000000000000000000000000000000000000000000000000600052604160045260246000fd5b604051908082528060200260200182016040528015610c9757816020015b6060815260200190600190039081610c825790505b5090506000805b600180549050811015610f355760005b60018281548110610ce8577f4e487b7100000000000000000000000000000000000000000000000000000000600052603260045260246000fd5b906000526020600020906009020160080180549050811015610f215760018281548110610d3e577f4e487b7100000000000000000000000000000000000000000000000000000000600052603260045260246000fd5b90600052602060002090600902016008018181548110610d87577f4e487b7100000000000000000000000000000000000000000000000000000000600052603260045260246000fd5b9060005260206000200160009054906101000a900473ffffffffffffffffffffffffffffffffffffffff1673ffffffffffffffffffffffffffffffffffffffff168673ffffffffffffffffffffffffffffffffffffffff161415610f0e5760018281548110610e1f577f4e487b7100000000000000000000000000000000000000000000000000000000600052603260045260246000fd5b90600052602060002090600902016007018054610e3b906120aa565b80601f0160208091040260200160405190810160405280929190818152602001828054610e67906120aa565b8015610eb45780601f10610e8957610100808354040283529160200191610eb4565b820191906000526020600020905b815481529060010190602001808311610e9757829003601f168201915b5050505050848480610ec59061210d565b955081518110610efe577f4e487b7100000000000000000000000000000000000000000000000000000000600052603260045260246000fd5b6020026020010181905250610f21565b8080610f199061210d565b915050610cae565b508080610f2d9061210d565b915050610c9e565b508192505050919050565b6060600060018054905067ffffffffffffffff811115610f89577f4e487b7100000000000000000000000000000000000000000000000000000000600052604160045260246000fd5b604051908082528060200260200182016040528015610fbc57816020015b6060815260200190600190039081610fa75790505b5090506000805b6001805490508110156111a7578473ffffffffffffffffffffffffffffffffffffffff1660018281548110611021577f4e487b7100000000000000000000000000000000000000000000000000000000600052603260045260246000fd5b906000526020600020906009020160000160009054906101000a900473ffffffffffffffffffffffffffffffffffffffff1673ffffffffffffffffffffffffffffffffffffffff16141561119457600181815481106110a9577f4e487b7100000000000000000000000000000000000000000000000000000000600052603260045260246000fd5b906000526020600020906009020160070180546110c5906120aa565b80601f01602080910402602001604051908101604052809291908181526020018280546110f1906120aa565b801561113e5780601f106111135761010080835404028352916020019161113e565b820191906000526020600020905b81548152906001019060200180831161112157829003601f168201915b505050505083838061114f9061210d565b945081518110611188577f4e487b7100000000000000000000000000000000000000000000000000000000600052603260045260246000fd5b60200260200101819052505b808061119f9061210d565b915050610fc3565b508192505050919050565b7f65d7a28e3265b37a6474929f336521b332c1681b933f6cb9f3376673440d862a81565b6111de6112ce565b73ffffffffffffffffffffffffffffffffffffffff166111fc610aaa565b73ffffffffffffffffffffffffffffffffffffffff1614611252576040517f08c379a000000000000000000000000000000000000000000000000000000000815260040161124990611e79565b60405180910390fd5b600073ffffffffffffffffffffffffffffffffffffffff168173ffffffffffffffffffffffffffffffffffffffff1614156112c2576040517f08c379a00000000000000000000000000000000000000000000000000000000081526004016112b990611e39565b60405180910390fd5b6112cb81611377565b50565b600033905090565b6112de610986565b61131d576040517f08c379a000000000000000000000000000000000000000000000000000000000815260040161131490611e19565b60405180910390fd5b60008060146101000a81548160ff0219169083151502179055507f5db9ee0a495bf2e6ff9c91a7834c1ba4fdd244a5e8aa4e537bd38aeae4b073aa6113606112ce565b60405161136d9190611d32565b60405180910390a1565b60008060009054906101000a900473ffffffffffffffffffffffffffffffffffffffff169050816000806101000a81548173ffffffffffffffffffffffffffffffffffffffff021916908373ffffffffffffffffffffffffffffffffffffffff1602179055508173ffffffffffffffffffffffffffffffffffffffff168173ffffffffffffffffffffffffffffffffffffffff167f8be0079c531659141344cd1fd0a4f28419497f9722a3daafe3b4186f6b6457e060405160405180910390a35050565b611443610986565b15611483576040517f08c379a000000000000000000000000000000000000000000000000000000000815260040161147a90611e59565b60405180910390fd5b6001600060146101000a81548160ff0219169083151502179055507f62e78cea01bee320cd4e420270b5ea74000d11b0c9f74754ebdbfc544b05a2586114c76112ce565b6040516114d49190611d32565b60405180910390a1565b6040518060c001604052806006905b60608152602001906001900390816114ed5790505090565b8260068101928215611547579160200282015b82811115611546578251829080519060200190611536929190611558565b5091602001919060010190611518565b5b5090506115549190611668565b5090565b828054611564906120aa565b90600052602060002090601f01602090048101928261158657600085556115cd565b82601f1061159f57805160ff19168380011785556115cd565b828001600101855582156115cd579182015b828111156115cc5782518255916020019190600101906115b1565b5b5090506115da919061168c565b5090565b828054828255906000526020600020908101928215611657579160200282015b828111156116565782518260006101000a81548173ffffffffffffffffffffffffffffffffffffffff021916908373ffffffffffffffffffffffffffffffffffffffff160217905550916020019190600101906115fe565b5b509050611664919061168c565b5090565b5b80821115611688576000818161167f91906116a9565b50600101611669565b5090565b5b808211156116a557600081600090555060010161168d565b5090565b5080546116b5906120aa565b6000825580601f106116c757506116e6565b601f0160209004906000526020600020908101906116e5919061168c565b5b50565b60006116fc6116f784611ef9565b611ed4565b90508281526020810184848401111561171457600080fd5b61171f848285612068565b509392505050565b600081359050611736816122e7565b92915050565b600082601f83011261174d57600080fd5b813561175d8482602086016116e9565b91505092915050565b600081359050611775816122fe565b92915050565b60006020828403121561178d57600080fd5b600061179b84828501611727565b91505092915050565b600080604083850312156117b757600080fd5b60006117c585828601611727565b925050602083013567ffffffffffffffff8111156117e257600080fd5b6117ee8582860161173c565b9150509250929050565b600080600080600080600080610100898b03121561181557600080fd5b60006118238b828c01611727565b985050602089013567ffffffffffffffff81111561184057600080fd5b61184c8b828c0161173c565b975050604089013567ffffffffffffffff81111561186957600080fd5b6118758b828c0161173c565b965050606089013567ffffffffffffffff81111561189257600080fd5b61189e8b828c0161173c565b955050608089013567ffffffffffffffff8111156118bb57600080fd5b6118c78b828c0161173c565b94505060a089013567ffffffffffffffff8111156118e457600080fd5b6118f08b828c0161173c565b93505060c089013567ffffffffffffffff81111561190d57600080fd5b6119198b828c0161173c565b92505060e089013567ffffffffffffffff81111561193657600080fd5b6119428b828c0161173c565b9150509295985092959890939650565b60006020828403121561196457600080fd5b600082013567ffffffffffffffff81111561197e57600080fd5b61198a8482850161173c565b91505092915050565b6000602082840312156119a557600080fd5b60006119b384828501611766565b91505092915050565b60006119c883836119e8565b60208301905092915050565b60006119e08383611beb565b905092915050565b6119f181612016565b82525050565b611a0081612016565b82525050565b6000611a1182611f69565b611a1b8185611fbc565b9350611a2683611f2a565b8060005b83811015611a57578151611a3e88826119bc565b9750611a4983611f95565b925050600181019050611a2a565b5085935050505092915050565b6000611a6f82611f74565b611a798185611fcd565b935083602082028501611a8b85611f3a565b8060005b85811015611ac75784840389528151611aa885826119d4565b9450611ab383611fa2565b925060208a01995050600181019050611a8f565b50829750879550505050505092915050565b6000611ae482611f7f565b611aee8185611fd8565b935083602082028501611b0085611f44565b8060005b85811015611b3c5784840389528151611b1d85826119d4565b9450611b2883611faf565b925060208a01995050600181019050611b04565b50829750879550505050505092915050565b611b5781612028565b82525050565b611b6681612034565b82525050565b60008154611b79816120aa565b611b838186611fe9565b94506001821660008114611b9e5760018114611baf57611be2565b60ff19831686528186019350611be2565b611bb885611f54565b60005b83811015611bda57815481890152600182019150602081019050611bbb565b838801955050505b50505092915050565b6000611bf682611f8a565b611c008185611ff4565b9350611c10818560208601612077565b611c19816121e3565b840191505092915050565b6000611c2f82611f8a565b611c398185612005565b9350611c49818560208601612077565b611c52816121e3565b840191505092915050565b6000611c6a601483612005565b9150611c75826121f4565b602082019050919050565b6000611c8d602683612005565b9150611c988261221d565b604082019050919050565b6000611cb0601083612005565b9150611cbb8261226c565b602082019050919050565b6000611cd3602083612005565b9150611cde82612295565b602082019050919050565b6000611cf6600f83612005565b9150611d01826122be565b602082019050919050565b611d158161205e565b82525050565b6000611d278284611b6c565b915081905092915050565b6000602082019050611d4760008301846119f7565b92915050565b6000604082019050611d6260008301856119f7565b8181036020830152611d748184611c24565b90509392505050565b60006020820190508181036000830152611d978184611a06565b905092915050565b60006020820190508181036000830152611db98184611a64565b905092915050565b60006020820190508181036000830152611ddb8184611ad9565b905092915050565b6000602082019050611df86000830184611b4e565b92915050565b6000602082019050611e136000830184611b5d565b92915050565b60006020820190508181036000830152611e3281611c5d565b9050919050565b60006020820190508181036000830152611e5281611c80565b9050919050565b60006020820190508181036000830152611e7281611ca3565b9050919050565b60006020820190508181036000830152611e9281611cc6565b9050919050565b60006020820190508181036000830152611eb281611ce9565b9050919050565b6000602082019050611ece6000830184611d0c565b92915050565b6000611ede611eef565b9050611eea82826120dc565b919050565b6000604051905090565b600067ffffffffffffffff821115611f1457611f136121b4565b5b611f1d826121e3565b9050602081019050919050565b6000819050602082019050919050565b6000819050919050565b6000819050602082019050919050565b60008190508160005260206000209050919050565b600081519050919050565b600060069050919050565b600081519050919050565b600081519050919050565b6000602082019050919050565b6000602082019050919050565b6000602082019050919050565b600082825260208201905092915050565b600081905092915050565b600082825260208201905092915050565b600081905092915050565b600082825260208201905092915050565b600082825260208201905092915050565b60006120218261203e565b9050919050565b60008115159050919050565b6000819050919050565b600073ffffffffffffffffffffffffffffffffffffffff82169050919050565b6000819050919050565b82818337600083830152505050565b60005b8381101561209557808201518184015260208101905061207a565b838111156120a4576000848401525b50505050565b600060028204905060018216806120c257607f821691505b602082108114156120d6576120d5612185565b5b50919050565b6120e5826121e3565b810181811067ffffffffffffffff82111715612104576121036121b4565b5b80604052505050565b60006121188261205e565b91507fffffffffffffffffffffffffffffffffffffffffffffffffffffffffffffffff82141561214b5761214a612156565b5b600182019050919050565b7f4e487b7100000000000000000000000000000000000000000000000000000000600052601160045260246000fd5b7f4e487b7100000000000000000000000000000000000000000000000000000000600052602260045260246000fd5b7f4e487b7100000000000000000000000000000000000000000000000000000000600052604160045260246000fd5b6000601f19601f8301169050919050565b7f5061757361626c653a206e6f7420706175736564000000000000000000000000600082015250565b7f4f776e61626c653a206e6577206f776e657220697320746865207a65726f206160008201527f6464726573730000000000000000000000000000000000000000000000000000602082015250565b7f5061757361626c653a2070617573656400000000000000000000000000000000600082015250565b7f4f776e61626c653a2063616c6c6572206973206e6f7420746865206f776e6572600082015250565b7f4e6f207369676e20757073207965740000000000000000000000000000000000600082015250565b6122f081612016565b81146122fb57600080fd5b50565b6123078161205e565b811461231257600080fd5b5056fea2646970667358221220a4a289c7b2c68a0522f19b662235c24941254dbd91df58f95722a54be2b8640064736f6c63430008030033",
	"immutableReferences": {},
	"source": "//SPDX-License-Identifier: Unlicensed\n/// @custom:security-contact krish.mehta@uwaterloo.ca\npragma solidity ^0.8.0;\n\n//import \"hardhat/console.sol\";\nimport \"@openzeppelin/contracts/access/Ownable.sol\";\nimport \"@openzeppelin/contracts/security/Pausable.sol\";\n\ncontract OrganisationEvents is Ownable, Pausable {\n    /**\n     * @dev Set who may pause the contract\n     */\n    bytes32 public constant PAUSER_ROLE = keccak256(\"PAUSER_ROLE\");\n\n    constructor() {}\n\n    /**\n     * @dev pauses the contract\n     */\n    function pause() public onlyOwner {\n        _pause();\n    }\n\n    /**\n     * @dev struct that contains all information regarding each event\n     */\n\n    // string eventName;\n    // string ageGroup;\n    // string startDate;\n    // string endDate;\n    // string activityType;\n    // string description;\n\n    struct EventInfo {\n        address organiser;\n        string[6] eventInfo;\n        string eID;\n        address[] attendees;\n    }\n\n    //Array to store all events\n    EventInfo[] public events;\n\n    /**\n     * @dev create event for an organisation\n     */\n    function createOrgEvent(\n        address organiser,\n        string memory eventName,\n        string memory ageGroup,\n        string memory startDate,\n        string memory endDate,\n        string memory activityType,\n        string memory description,\n        string memory eventId\n    ) public payable {\n        address[] memory attendeeList;\n        string[6] memory _eventInfo;\n        _eventInfo = [\n            eventName,\n            ageGroup,\n            startDate,\n            endDate,\n            activityType,\n            description\n        ];\n        EventInfo memory _event = EventInfo(\n            organiser,\n            _eventInfo,\n            eventId,\n            attendeeList\n        );\n\n        events.push(_event);\n    }\n\n    /**\n     * @dev get all events set by an organisation\n     */\n    function getOrgEventIDs(address orgAddress)\n        public\n        view\n        returns (string[] memory)\n    {\n        string[] memory eIDs = new string[](events.length);\n        uint256 k = 0;\n        for (uint256 i = 0; i < events.length; i++) {\n            if (events[i].organiser == orgAddress) {\n                eIDs[k++] = events[i].eID;\n            }\n        }\n        return eIDs;\n    }\n\n    function getEventInfoById(string memory _eID)\n        public\n        view\n        returns (string[6] memory)\n    {\n        string[6] memory info;\n        for (uint256 i = 0; i < events.length; i++) {\n            if (keccak256(bytes(events[i].eID)) == keccak256(bytes(_eID))) {\n                info = events[i].eventInfo;\n            }\n        }\n        return info;\n    }\n\n    /**\n     * @dev add a new attendee to an event\n     * Parameter: user Address, name of event\n     */\n    function addNewAttendee(address _user, string memory eId) public payable {\n        for (uint256 i = 0; i < events.length; i++) {\n            if (keccak256(bytes(events[i].eID)) == keccak256(bytes(eId))) {\n                events[i].attendees.push(_user);\n            }\n        }\n    }\n\n    /**\n     * @dev get attendee list for a specfic event\n     * Parameter: Name of event\n     */\n    function getAllEventAttendees(string memory eId)\n        public\n        view\n        returns (address[] memory)\n    {\n        for (uint256 i = 0; i < events.length; i++) {\n            if (keccak256(bytes(events[i].eID)) == keccak256(bytes(eId))) {\n                return events[i].attendees;\n            }\n        }\n        revert(\"No sign ups yet\");\n    }\n\n    /**\n     * @dev unpauses the contract\n     */\n    function unpause() public onlyOwner {\n        _unpause();\n    }\n\n    /**\n     * @dev get all events a user has signed up for\n     * Parameter: user Address\n     */\n    function getUserEventIDs(address user)\n        public\n        view\n        returns (string[] memory)\n    {\n        string[] memory userEventIDs = new string[](events.length);\n        uint256 k = 0;\n        for (uint256 i = 0; i < events.length; i++) {\n            for (uint256 j = 0; j < events[i].attendees.length; j++) {\n                if (user == events[i].attendees[j]) {\n                    userEventIDs[k++] = events[i].eID;\n                    break;\n                }\n            }\n        }\n        return userEventIDs;\n    }\n\n    function getNumberOfEvents() public view returns (uint256) {\n        return events.length;\n    }\n}\n",
	"sourcePath": "/home/djkesu/Desktop/Projects/SmartWaterlooEth/contracts/OrganisationEvents.sol",
	"compiler": {
		"name": "solc",
		"version": "0.8.3+commit.8d00100c.Emscripten.clang"
	},
	"schemaVersion": "3.4.5",
	"updatedAt": "2022-04-15T04:44:54.456Z",
	"networkType": "ethereum",
	"devdoc": {
		"kind": "dev",
		"methods": {
			"addNewAttendee(address,string)": {
				"details": "add a new attendee to an event Parameter: user Address, name of event"
			},
			"createOrgEvent(address,string,string,string,string,string,string,string)": {
				"details": "create event for an organisation"
			},
			"getAllEventAttendees(string)": {
				"details": "get attendee list for a specfic event Parameter: Name of event"
			},
			"getOrgEventIDs(address)": {
				"details": "get all events set by an organisation"
			},
			"getUserEventIDs(address)": {
				"details": "get all events a user has signed up for Parameter: user Address"
			},
			"owner()": {
				"details": "Returns the address of the current owner."
			},
			"pause()": {
				"details": "pauses the contract"
			},
			"paused()": {
				"details": "Returns true if the contract is paused, and false otherwise."
			},
			"renounceOwnership()": {
				"details": "Leaves the contract without owner. It will not be possible to call `onlyOwner` functions anymore. Can only be called by the current owner. NOTE: Renouncing ownership will leave the contract without an owner, thereby removing any functionality that is only available to the owner."
			},
			"transferOwnership(address)": {
				"details": "Transfers ownership of the contract to a new account (`newOwner`). Can only be called by the current owner."
			},
			"unpause()": {
				"details": "unpauses the contract"
			}
		},
		"stateVariables": {
			"PAUSER_ROLE": {
				"details": "Set who may pause the contract"
			}
		},
		"version": 1
	},
	"userdoc": {
		"kind": "user",
		"methods": {},
		"version": 1
	}
}