{
	"contractName": "OrgSurvey",
	"abi": [
		{
			"inputs": [],
			"stateMutability": "nonpayable",
			"type": "constructor"
		},
		{
			"anonymous": false,
			"inputs": [
				{
					"indexed": true,
					"internalType": "address",
					"name": "previousOwner",
					"type": "address"
				},
				{
					"indexed": true,
					"internalType": "address",
					"name": "newOwner",
					"type": "address"
				}
			],
			"name": "OwnershipTransferred",
			"type": "event"
		},
		{
			"anonymous": false,
			"inputs": [
				{
					"indexed": false,
					"internalType": "address",
					"name": "account",
					"type": "address"
				}
			],
			"name": "Paused",
			"type": "event"
		},
		{
			"anonymous": false,
			"inputs": [
				{
					"indexed": false,
					"internalType": "address",
					"name": "account",
					"type": "address"
				}
			],
			"name": "Unpaused",
			"type": "event"
		},
		{
			"inputs": [],
			"name": "PAUSER_ROLE",
			"outputs": [
				{
					"internalType": "bytes32",
					"name": "",
					"type": "bytes32"
				}
			],
			"stateMutability": "view",
			"type": "function",
			"constant": true
		},
		{
			"inputs": [],
			"name": "owner",
			"outputs": [
				{
					"internalType": "address",
					"name": "",
					"type": "address"
				}
			],
			"stateMutability": "view",
			"type": "function",
			"constant": true
		},
		{
			"inputs": [],
			"name": "paused",
			"outputs": [
				{
					"internalType": "bool",
					"name": "",
					"type": "bool"
				}
			],
			"stateMutability": "view",
			"type": "function",
			"constant": true
		},
		{
			"inputs": [],
			"name": "renounceOwnership",
			"outputs": [],
			"stateMutability": "nonpayable",
			"type": "function"
		},
		{
			"inputs": [
				{
					"internalType": "uint256",
					"name": "",
					"type": "uint256"
				}
			],
			"name": "survey",
			"outputs": [
				{
					"internalType": "address",
					"name": "org",
					"type": "address"
				},
				{
					"internalType": "string",
					"name": "sId",
					"type": "string"
				}
			],
			"stateMutability": "view",
			"type": "function",
			"constant": true
		},
		{
			"inputs": [
				{
					"internalType": "address",
					"name": "newOwner",
					"type": "address"
				}
			],
			"name": "transferOwnership",
			"outputs": [],
			"stateMutability": "nonpayable",
			"type": "function"
		},
		{
			"inputs": [],
			"name": "pause",
			"outputs": [],
			"stateMutability": "nonpayable",
			"type": "function"
		},
		{
			"inputs": [],
			"name": "unpause",
			"outputs": [],
			"stateMutability": "nonpayable",
			"type": "function"
		},
		{
			"inputs": [
				{
					"internalType": "address",
					"name": "_org",
					"type": "address"
				},
				{
					"internalType": "string[]",
					"name": "_questions",
					"type": "string[]"
				},
				{
					"internalType": "string",
					"name": "_sId",
					"type": "string"
				}
			],
			"name": "createSurvey",
			"outputs": [],
			"stateMutability": "payable",
			"type": "function",
			"payable": true
		},
		{
			"inputs": [
				{
					"internalType": "address",
					"name": "_org",
					"type": "address"
				}
			],
			"name": "getSurveyIDs",
			"outputs": [
				{
					"internalType": "string[]",
					"name": "",
					"type": "string[]"
				}
			],
			"stateMutability": "view",
			"type": "function",
			"constant": true
		},
		{
			"inputs": [
				{
					"internalType": "string",
					"name": "_sId",
					"type": "string"
				}
			],
			"name": "getSurveyInfoByID",
			"outputs": [
				{
					"internalType": "string[]",
					"name": "",
					"type": "string[]"
				}
			],
			"stateMutability": "view",
			"type": "function",
			"constant": true
		}
	],
	"bytecode": "0x608060405234801561001057600080fd5b5061002d61002261004c60201b60201c565b61005460201b60201c565b60008060146101000a81548160ff021916908315150217905550610118565b600033905090565b60008060009054906101000a900473ffffffffffffffffffffffffffffffffffffffff169050816000806101000a81548173ffffffffffffffffffffffffffffffffffffffff021916908373ffffffffffffffffffffffffffffffffffffffff1602179055508173ffffffffffffffffffffffffffffffffffffffff168173ffffffffffffffffffffffffffffffffffffffff167f8be0079c531659141344cd1fd0a4f28419497f9722a3daafe3b4186f6b6457e060405160405180910390a35050565b611911806101276000396000f3fe60806040526004361061009c5760003560e01c8063742823371161006457806374282337146101545780638456cb59146101915780638da5cb5b146101a8578063c373bee5146101d3578063e63ab1e914610210578063f2fde38b1461023b5761009c565b80632ddad612146100a15780633f4ba83a146100bd5780633fb32c16146100d45780635c975abb14610112578063715018a61461013d575b600080fd5b6100bb60048036038101906100b6919061103b565b610264565b005b3480156100c957600080fd5b506100d261034e565b005b3480156100e057600080fd5b506100fb60048036038101906100f691906110fb565b6103d4565b6040516101099291906113ac565b60405180910390f35b34801561011e57600080fd5b506101276104b0565b60405161013491906113fe565b60405180910390f35b34801561014957600080fd5b506101526104c6565b005b34801561016057600080fd5b5061017b600480360381019061017691906110ba565b61054e565b60405161018891906113dc565b60405180910390f35b34801561019d57600080fd5b506101a6610745565b005b3480156101b457600080fd5b506101bd6107cb565b6040516101ca9190611391565b60405180910390f35b3480156101df57600080fd5b506101fa60048036038101906101f59190611012565b6107f4565b60405161020791906113dc565b60405180910390f35b34801561021c57600080fd5b50610225610a66565b6040516102329190611419565b60405180910390f35b34801561024757600080fd5b50610262600480360381019061025d9190611012565b610a8a565b005b600060405180606001604052808573ffffffffffffffffffffffffffffffffffffffff168152602001848152602001838152509050600181908060018154018082558091505060019003906000526020600020906003020160009091909190915060008201518160000160006101000a81548173ffffffffffffffffffffffffffffffffffffffff021916908373ffffffffffffffffffffffffffffffffffffffff1602179055506020820151816001019080519060200190610328929190610d92565b506040820151816002019080519060200190610345929190610df2565b50505050505050565b610356610b82565b73ffffffffffffffffffffffffffffffffffffffff166103746107cb565b73ffffffffffffffffffffffffffffffffffffffff16146103ca576040517f08c379a00000000000000000000000000000000000000000000000000000000081526004016103c190611494565b60405180910390fd5b6103d2610b8a565b565b600181815481106103e457600080fd5b90600052602060002090600302016000915090508060000160009054906101000a900473ffffffffffffffffffffffffffffffffffffffff169080600201805461042d90611670565b80601f016020809104026020016040519081016040528092919081815260200182805461045990611670565b80156104a65780601f1061047b576101008083540402835291602001916104a6565b820191906000526020600020905b81548152906001019060200180831161048957829003601f168201915b5050505050905082565b60008060149054906101000a900460ff16905090565b6104ce610b82565b73ffffffffffffffffffffffffffffffffffffffff166104ec6107cb565b73ffffffffffffffffffffffffffffffffffffffff1614610542576040517f08c379a000000000000000000000000000000000000000000000000000000000815260040161053990611494565b60405180910390fd5b61054c6000610c2b565b565b606060005b600180549050811015610704578280519060200120600182815481106105a2577f4e487b7100000000000000000000000000000000000000000000000000000000600052603260045260246000fd5b90600052602060002090600302016002016040516105c0919061137a565b604051809103902014156106f15760018181548110610608577f4e487b7100000000000000000000000000000000000000000000000000000000600052603260045260246000fd5b9060005260206000209060030201600101805480602002602001604051908101604052809291908181526020016000905b828210156106e557838290600052602060002001805461065890611670565b80601f016020809104026020016040519081016040528092919081815260200182805461068490611670565b80156106d15780601f106106a6576101008083540402835291602001916106d1565b820191906000526020600020905b8154815290600101906020018083116106b457829003601f168201915b505050505081526020019060010190610639565b50505050915050610740565b80806106fc906116d3565b915050610553565b506040517f08c379a0000000000000000000000000000000000000000000000000000000008152600401610737906114b4565b60405180910390fd5b919050565b61074d610b82565b73ffffffffffffffffffffffffffffffffffffffff1661076b6107cb565b73ffffffffffffffffffffffffffffffffffffffff16146107c1576040517f08c379a00000000000000000000000000000000000000000000000000000000081526004016107b890611494565b60405180910390fd5b6107c9610cef565b565b60008060009054906101000a900473ffffffffffffffffffffffffffffffffffffffff16905090565b6060600060018054905067ffffffffffffffff81111561083d577f4e487b7100000000000000000000000000000000000000000000000000000000600052604160045260246000fd5b60405190808252806020026020018201604052801561087057816020015b606081526020019060019003908161085b5790505b5090506000805b600180549050811015610a5b578473ffffffffffffffffffffffffffffffffffffffff16600182815481106108d5577f4e487b7100000000000000000000000000000000000000000000000000000000600052603260045260246000fd5b906000526020600020906003020160000160009054906101000a900473ffffffffffffffffffffffffffffffffffffffff1673ffffffffffffffffffffffffffffffffffffffff161415610a48576001818154811061095d577f4e487b7100000000000000000000000000000000000000000000000000000000600052603260045260246000fd5b9060005260206000209060030201600201805461097990611670565b80601f01602080910402602001604051908101604052809291908181526020018280546109a590611670565b80156109f25780601f106109c7576101008083540402835291602001916109f2565b820191906000526020600020905b8154815290600101906020018083116109d557829003601f168201915b5050505050838380610a03906116d3565b945081518110610a3c577f4e487b7100000000000000000000000000000000000000000000000000000000600052603260045260246000fd5b60200260200101819052505b8080610a53906116d3565b915050610877565b508192505050919050565b7f65d7a28e3265b37a6474929f336521b332c1681b933f6cb9f3376673440d862a81565b610a92610b82565b73ffffffffffffffffffffffffffffffffffffffff16610ab06107cb565b73ffffffffffffffffffffffffffffffffffffffff1614610b06576040517f08c379a0000000000000000000000000000000000000000000000000000000008152600401610afd90611494565b60405180910390fd5b600073ffffffffffffffffffffffffffffffffffffffff168173ffffffffffffffffffffffffffffffffffffffff161415610b76576040517f08c379a0000000000000000000000000000000000000000000000000000000008152600401610b6d90611454565b60405180910390fd5b610b7f81610c2b565b50565b600033905090565b610b926104b0565b610bd1576040517f08c379a0000000000000000000000000000000000000000000000000000000008152600401610bc890611434565b60405180910390fd5b60008060146101000a81548160ff0219169083151502179055507f5db9ee0a495bf2e6ff9c91a7834c1ba4fdd244a5e8aa4e537bd38aeae4b073aa610c14610b82565b604051610c219190611391565b60405180910390a1565b60008060009054906101000a900473ffffffffffffffffffffffffffffffffffffffff169050816000806101000a81548173ffffffffffffffffffffffffffffffffffffffff021916908373ffffffffffffffffffffffffffffffffffffffff1602179055508173ffffffffffffffffffffffffffffffffffffffff168173ffffffffffffffffffffffffffffffffffffffff167f8be0079c531659141344cd1fd0a4f28419497f9722a3daafe3b4186f6b6457e060405160405180910390a35050565b610cf76104b0565b15610d37576040517f08c379a0000000000000000000000000000000000000000000000000000000008152600401610d2e90611474565b60405180910390fd5b6001600060146101000a81548160ff0219169083151502179055507f62e78cea01bee320cd4e420270b5ea74000d11b0c9f74754ebdbfc544b05a258610d7b610b82565b604051610d889190611391565b60405180910390a1565b828054828255906000526020600020908101928215610de1579160200282015b82811115610de0578251829080519060200190610dd0929190610df2565b5091602001919060010190610db2565b5b509050610dee9190610e78565b5090565b828054610dfe90611670565b90600052602060002090601f016020900481019282610e205760008555610e67565b82601f10610e3957805160ff1916838001178555610e67565b82800160010185558215610e67579182015b82811115610e66578251825591602001919060010190610e4b565b5b509050610e749190610e9c565b5090565b5b80821115610e985760008181610e8f9190610eb9565b50600101610e79565b5090565b5b80821115610eb5576000816000905550600101610e9d565b5090565b508054610ec590611670565b6000825580601f10610ed75750610ef6565b601f016020900490600052602060002090810190610ef59190610e9c565b5b50565b6000610f0c610f07846114f9565b6114d4565b9050808382526020820190508260005b85811015610f4c5781358501610f328882610fd3565b845260208401935060208301925050600181019050610f1c565b5050509392505050565b6000610f69610f6484611525565b6114d4565b905082815260208101848484011115610f8157600080fd5b610f8c84828561162e565b509392505050565b600081359050610fa3816118ad565b92915050565b600082601f830112610fba57600080fd5b8135610fca848260208601610ef9565b91505092915050565b600082601f830112610fe457600080fd5b8135610ff4848260208601610f56565b91505092915050565b60008135905061100c816118c4565b92915050565b60006020828403121561102457600080fd5b600061103284828501610f94565b91505092915050565b60008060006060848603121561105057600080fd5b600061105e86828701610f94565b935050602084013567ffffffffffffffff81111561107b57600080fd5b61108786828701610fa9565b925050604084013567ffffffffffffffff8111156110a457600080fd5b6110b086828701610fd3565b9150509250925092565b6000602082840312156110cc57600080fd5b600082013567ffffffffffffffff8111156110e657600080fd5b6110f284828501610fd3565b91505092915050565b60006020828403121561110d57600080fd5b600061111b84828501610ffd565b91505092915050565b60006111308383611259565b905092915050565b611141816115dc565b82525050565b60006111528261157b565b61115c818561159e565b93508360208202850161116e85611556565b8060005b858110156111aa578484038952815161118b8582611124565b945061119683611591565b925060208a01995050600181019050611172565b50829750879550505050505092915050565b6111c5816115ee565b82525050565b6111d4816115fa565b82525050565b600081546111e781611670565b6111f181866115af565b9450600182166000811461120c576001811461121d57611250565b60ff19831686528186019350611250565b61122685611566565b60005b8381101561124857815481890152600182019150602081019050611229565b838801955050505b50505092915050565b600061126482611586565b61126e81856115ba565b935061127e81856020860161163d565b611287816117a9565b840191505092915050565b600061129d82611586565b6112a781856115cb565b93506112b781856020860161163d565b6112c0816117a9565b840191505092915050565b60006112d86014836115cb565b91506112e3826117ba565b602082019050919050565b60006112fb6026836115cb565b9150611306826117e3565b604082019050919050565b600061131e6010836115cb565b915061132982611832565b602082019050919050565b60006113416020836115cb565b915061134c8261185b565b602082019050919050565b6000611364600f836115cb565b915061136f82611884565b602082019050919050565b600061138682846111da565b915081905092915050565b60006020820190506113a66000830184611138565b92915050565b60006040820190506113c16000830185611138565b81810360208301526113d38184611292565b90509392505050565b600060208201905081810360008301526113f68184611147565b905092915050565b600060208201905061141360008301846111bc565b92915050565b600060208201905061142e60008301846111cb565b92915050565b6000602082019050818103600083015261144d816112cb565b9050919050565b6000602082019050818103600083015261146d816112ee565b9050919050565b6000602082019050818103600083015261148d81611311565b9050919050565b600060208201905081810360008301526114ad81611334565b9050919050565b600060208201905081810360008301526114cd81611357565b9050919050565b60006114de6114ef565b90506114ea82826116a2565b919050565b6000604051905090565b600067ffffffffffffffff8211156115145761151361177a565b5b602082029050602081019050919050565b600067ffffffffffffffff8211156115405761153f61177a565b5b611549826117a9565b9050602081019050919050565b6000819050602082019050919050565b60008190508160005260206000209050919050565b600081519050919050565b600081519050919050565b6000602082019050919050565b600082825260208201905092915050565b600081905092915050565b600082825260208201905092915050565b600082825260208201905092915050565b60006115e782611604565b9050919050565b60008115159050919050565b6000819050919050565b600073ffffffffffffffffffffffffffffffffffffffff82169050919050565b6000819050919050565b82818337600083830152505050565b60005b8381101561165b578082015181840152602081019050611640565b8381111561166a576000848401525b50505050565b6000600282049050600182168061168857607f821691505b6020821081141561169c5761169b61174b565b5b50919050565b6116ab826117a9565b810181811067ffffffffffffffff821117156116ca576116c961177a565b5b80604052505050565b60006116de82611624565b91507fffffffffffffffffffffffffffffffffffffffffffffffffffffffffffffffff8214156117115761171061171c565b5b600182019050919050565b7f4e487b7100000000000000000000000000000000000000000000000000000000600052601160045260246000fd5b7f4e487b7100000000000000000000000000000000000000000000000000000000600052602260045260246000fd5b7f4e487b7100000000000000000000000000000000000000000000000000000000600052604160045260246000fd5b6000601f19601f8301169050919050565b7f5061757361626c653a206e6f7420706175736564000000000000000000000000600082015250565b7f4f776e61626c653a206e6577206f776e657220697320746865207a65726f206160008201527f6464726573730000000000000000000000000000000000000000000000000000602082015250565b7f5061757361626c653a2070617573656400000000000000000000000000000000600082015250565b7f4f776e61626c653a2063616c6c6572206973206e6f7420746865206f776e6572600082015250565b7f4e6f2053757276657920666f756e640000000000000000000000000000000000600082015250565b6118b6816115dc565b81146118c157600080fd5b50565b6118cd81611624565b81146118d857600080fd5b5056fea26469706673582212206ee6f2961284df032d6fea750f05475f64370422657136fa3cfbe1f65fae677364736f6c63430008030033",
	"immutableReferences": {},
	"source": "//SPDX-License-Identifier: Unlicensed\n/// @custom:security-contact krish.mehta@uwaterloo.ca\n\npragma solidity ^0.8.0;\n\n//import \"hardhat/console.sol\";\nimport \"@openzeppelin/contracts/access/Ownable.sol\";\nimport \"@openzeppelin/contracts/security/Pausable.sol\";\n\ncontract OrgSurvey is Ownable, Pausable {\n    /**\n     * @dev Set who may pause the contract\n     */\n    bytes32 public constant PAUSER_ROLE = keccak256(\"PAUSER_ROLE\");\n\n    constructor() {}\n\n    /**\n     * @dev pauses the contract\n     */\n    function pause() public onlyOwner {\n        _pause();\n    }\n\n    /**\n     * @dev unpauses the contract\n     */\n    function unpause() public onlyOwner {\n        _unpause();\n    }\n\n    struct Surveys {\n        address org;\n        string[] questions;\n        string sId;\n    }\n\n    Surveys[] public survey;\n\n    function createSurvey(\n        address _org,\n        string[] memory _questions,\n        string memory _sId\n    ) public payable {\n        Surveys memory surveyInfo = Surveys(_org, _questions, _sId);\n        survey.push(surveyInfo);\n    }\n\n    function getSurveyIDs(address _org) public view returns (string[] memory) {\n        string[] memory surveyIDs = new string[](survey.length);\n        uint256 k = 0;\n        for (uint256 i = 0; i < survey.length; i++) {\n            if (survey[i].org == _org) {\n                surveyIDs[k++] = (survey[i].sId);\n            }\n        }\n        return surveyIDs;\n    }\n\n    function getSurveyInfoByID(string memory _sId)\n        public\n        view\n        returns (string[] memory)\n    {\n        for (uint256 i = 0; i < survey.length; i++) {\n            if (keccak256(bytes(survey[i].sId)) == keccak256(bytes(_sId))) {\n                return survey[i].questions;\n            }\n        }\n        revert(\"No Survey found\");\n    }\n}\n",
	"sourcePath": "/home/djkesu/Desktop/Projects/SmartWaterlooEth/contracts/OrgSurvey.sol",
	"compiler": {
		"name": "solc",
		"version": "0.8.3+commit.8d00100c.Emscripten.clang"
	},
	"schemaVersion": "3.4.5",
	"updatedAt": "2022-04-15T04:44:54.450Z",
	"networkType": "ethereum",
	"devdoc": {
		"kind": "dev",
		"methods": {
			"owner()": {
				"details": "Returns the address of the current owner."
			},
			"pause()": {
				"details": "pauses the contract"
			},
			"paused()": {
				"details": "Returns true if the contract is paused, and false otherwise."
			},
			"renounceOwnership()": {
				"details": "Leaves the contract without owner. It will not be possible to call `onlyOwner` functions anymore. Can only be called by the current owner. NOTE: Renouncing ownership will leave the contract without an owner, thereby removing any functionality that is only available to the owner."
			},
			"transferOwnership(address)": {
				"details": "Transfers ownership of the contract to a new account (`newOwner`). Can only be called by the current owner."
			},
			"unpause()": {
				"details": "unpauses the contract"
			}
		},
		"stateVariables": {
			"PAUSER_ROLE": {
				"details": "Set who may pause the contract"
			}
		},
		"version": 1
	},
	"userdoc": {
		"kind": "user",
		"methods": {},
		"version": 1
	}
}