{
	"contractName": "SmartOrganisation",
	"abi": [
		{
			"inputs": [],
			"stateMutability": "nonpayable",
			"type": "constructor"
		},
		{
			"anonymous": false,
			"inputs": [
				{
					"indexed": false,
					"internalType": "address",
					"name": "_orgOwner",
					"type": "address"
				},
				{
					"indexed": false,
					"internalType": "string",
					"name": "uid",
					"type": "string"
				},
				{
					"indexed": false,
					"internalType": "string",
					"name": "businessNumber",
					"type": "string"
				},
				{
					"indexed": false,
					"internalType": "string",
					"name": "orgName",
					"type": "string"
				},
				{
					"indexed": false,
					"internalType": "string[]",
					"name": "members",
					"type": "string[]"
				},
				{
					"indexed": false,
					"internalType": "bool",
					"name": "verified",
					"type": "bool"
				}
			],
			"name": "OrganisationCreated",
			"type": "event"
		},
		{
			"anonymous": false,
			"inputs": [
				{
					"indexed": true,
					"internalType": "address",
					"name": "previousOwner",
					"type": "address"
				},
				{
					"indexed": true,
					"internalType": "address",
					"name": "newOwner",
					"type": "address"
				}
			],
			"name": "OwnershipTransferred",
			"type": "event"
		},
		{
			"anonymous": false,
			"inputs": [
				{
					"indexed": false,
					"internalType": "address",
					"name": "account",
					"type": "address"
				}
			],
			"name": "Paused",
			"type": "event"
		},
		{
			"anonymous": false,
			"inputs": [
				{
					"indexed": false,
					"internalType": "address",
					"name": "account",
					"type": "address"
				}
			],
			"name": "Unpaused",
			"type": "event"
		},
		{
			"anonymous": false,
			"inputs": [
				{
					"indexed": false,
					"internalType": "string",
					"name": "businessNumber",
					"type": "string"
				}
			],
			"name": "newBusinessAdded",
			"type": "event"
		},
		{
			"inputs": [],
			"name": "PAUSER_ROLE",
			"outputs": [
				{
					"internalType": "bytes32",
					"name": "",
					"type": "bytes32"
				}
			],
			"stateMutability": "view",
			"type": "function",
			"constant": true
		},
		{
			"inputs": [
				{
					"internalType": "uint256",
					"name": "",
					"type": "uint256"
				}
			],
			"name": "organisations",
			"outputs": [
				{
					"internalType": "address",
					"name": "_orgOwner",
					"type": "address"
				},
				{
					"internalType": "string",
					"name": "uid",
					"type": "string"
				},
				{
					"internalType": "string",
					"name": "businessNumber",
					"type": "string"
				},
				{
					"internalType": "string",
					"name": "orgName",
					"type": "string"
				},
				{
					"internalType": "bool",
					"name": "verified",
					"type": "bool"
				}
			],
			"stateMutability": "view",
			"type": "function",
			"constant": true
		},
		{
			"inputs": [],
			"name": "owner",
			"outputs": [
				{
					"internalType": "address",
					"name": "",
					"type": "address"
				}
			],
			"stateMutability": "view",
			"type": "function",
			"constant": true
		},
		{
			"inputs": [],
			"name": "paused",
			"outputs": [
				{
					"internalType": "bool",
					"name": "",
					"type": "bool"
				}
			],
			"stateMutability": "view",
			"type": "function",
			"constant": true
		},
		{
			"inputs": [],
			"name": "renounceOwnership",
			"outputs": [],
			"stateMutability": "nonpayable",
			"type": "function"
		},
		{
			"inputs": [
				{
					"internalType": "address",
					"name": "newOwner",
					"type": "address"
				}
			],
			"name": "transferOwnership",
			"outputs": [],
			"stateMutability": "nonpayable",
			"type": "function"
		},
		{
			"inputs": [
				{
					"internalType": "address",
					"name": "_user",
					"type": "address"
				},
				{
					"internalType": "string",
					"name": "uid",
					"type": "string"
				},
				{
					"internalType": "string",
					"name": "businessNumber",
					"type": "string"
				},
				{
					"internalType": "string",
					"name": "orgName",
					"type": "string"
				},
				{
					"internalType": "string[]",
					"name": "members",
					"type": "string[]"
				}
			],
			"name": "createOrg",
			"outputs": [],
			"stateMutability": "payable",
			"type": "function",
			"payable": true
		},
		{
			"inputs": [],
			"name": "pause",
			"outputs": [],
			"stateMutability": "nonpayable",
			"type": "function"
		},
		{
			"inputs": [],
			"name": "unpause",
			"outputs": [],
			"stateMutability": "nonpayable",
			"type": "function"
		},
		{
			"inputs": [],
			"name": "getTotalOrganisations",
			"outputs": [
				{
					"internalType": "uint256",
					"name": "",
					"type": "uint256"
				}
			],
			"stateMutability": "view",
			"type": "function",
			"constant": true
		},
		{
			"inputs": [
				{
					"internalType": "string",
					"name": "_bnumber",
					"type": "string"
				}
			],
			"name": "addVerifiedBusiness",
			"outputs": [],
			"stateMutability": "nonpayable",
			"type": "function"
		},
		{
			"inputs": [],
			"name": "getAllVerifiedBusinesses",
			"outputs": [
				{
					"internalType": "string[]",
					"name": "",
					"type": "string[]"
				}
			],
			"stateMutability": "view",
			"type": "function",
			"constant": true
		},
		{
			"inputs": [
				{
					"internalType": "address",
					"name": "_orgOwner",
					"type": "address"
				}
			],
			"name": "getOrgInfo",
			"outputs": [
				{
					"internalType": "string",
					"name": "",
					"type": "string"
				},
				{
					"internalType": "string",
					"name": "",
					"type": "string"
				},
				{
					"internalType": "string",
					"name": "",
					"type": "string"
				},
				{
					"internalType": "string[]",
					"name": "",
					"type": "string[]"
				},
				{
					"internalType": "bool",
					"name": "",
					"type": "bool"
				}
			],
			"stateMutability": "view",
			"type": "function",
			"constant": true
		},
		{
			"inputs": [
				{
					"internalType": "address",
					"name": "_orgOwner",
					"type": "address"
				}
			],
			"name": "getOrgVerification",
			"outputs": [
				{
					"internalType": "bool",
					"name": "",
					"type": "bool"
				}
			],
			"stateMutability": "view",
			"type": "function",
			"constant": true
		},
		{
			"inputs": [
				{
					"internalType": "string",
					"name": "_uid",
					"type": "string"
				},
				{
					"internalType": "string",
					"name": "memberAddress",
					"type": "string"
				}
			],
			"name": "addMembers",
			"outputs": [],
			"stateMutability": "payable",
			"type": "function",
			"payable": true
		}
	],
	"bytecode": "0x60806040523480156200001157600080fd5b506200003262000026620000a960201b60201c565b620000b160201b60201c565b60008060146101000a81548160ff02191690831515021790555060405180602001604052806040518060400160405280600a81526020017f31323334353637383930000000000000000000000000000000000000000000008152508152506001906001620000a292919062000175565b506200035f565b600033905090565b60008060009054906101000a900473ffffffffffffffffffffffffffffffffffffffff169050816000806101000a81548173ffffffffffffffffffffffffffffffffffffffff021916908373ffffffffffffffffffffffffffffffffffffffff1602179055508173ffffffffffffffffffffffffffffffffffffffff168173ffffffffffffffffffffffffffffffffffffffff167f8be0079c531659141344cd1fd0a4f28419497f9722a3daafe3b4186f6b6457e060405160405180910390a35050565b828054828255906000526020600020908101928215620001c9579160200282015b82811115620001c8578251829080519060200190620001b7929190620001dc565b509160200191906001019062000196565b5b509050620001d891906200026d565b5090565b828054620001ea90620002fa565b90600052602060002090601f0160209004810192826200020e57600085556200025a565b82601f106200022957805160ff19168380011785556200025a565b828001600101855582156200025a579182015b82811115620002595782518255916020019190600101906200023c565b5b50905062000269919062000295565b5090565b5b80821115620002915760008181620002879190620002b4565b506001016200026e565b5090565b5b80821115620002b057600081600090555060010162000296565b5090565b508054620002c290620002fa565b6000825580601f10620002d65750620002f7565b601f016020900490600052602060002090810190620002f6919062000295565b5b50565b600060028204905060018216806200031357607f821691505b602082108114156200032a576200032962000330565b5b50919050565b7f4e487b7100000000000000000000000000000000000000000000000000000000600052602260045260246000fd5b6126bd806200036f6000396000f3fe6080604052600436106100e85760003560e01c80638da5cb5b1161008a578063e63ab1e911610059578063e63ab1e9146102b9578063f1102f22146102e4578063f2fde38b1461030d578063f59003fd14610336576100e8565b80638da5cb5b146101e55780638f07e45a14610210578063bb42602e1461023b578063c9295bc614610278576100e8565b80635e99cb9b116100c65780635e99cb9b14610170578063690b6ed61461019b578063715018a6146101b75780638456cb59146101ce576100e8565b8063246f8c44146100ed5780633f4ba83a1461012e5780635c975abb14610145575b600080fd5b3480156100f957600080fd5b50610114600480360381019061010f9190611ccb565b610352565b60405161012595949392919061202b565b60405180910390f35b34801561013a57600080fd5b5061014361055d565b005b34801561015157600080fd5b5061015a6105e3565b60405161016791906120b5565b60405180910390f35b34801561017c57600080fd5b506101856105f9565b604051610192919061223c565b60405180910390f35b6101b560048036038101906101b09190611c5f565b610606565b005b3480156101c357600080fd5b506101cc610722565b005b3480156101da57600080fd5b506101e36107aa565b005b3480156101f157600080fd5b506101fa610830565b6040516102079190611f93565b60405180910390f35b34801561021c57600080fd5b50610225610859565b6040516102329190612093565b60405180910390f35b34801561024757600080fd5b50610262600480360381019061025d9190611b1e565b610932565b60405161026f91906120b5565b60405180910390f35b34801561028457600080fd5b5061029f600480360381019061029a9190611b1e565b610b71565b6040516102b095949392919061210d565b60405180910390f35b3480156102c557600080fd5b506102ce61108f565b6040516102db91906120d0565b60405180910390f35b3480156102f057600080fd5b5061030b60048036038101906103069190611c1e565b6110b3565b005b34801561031957600080fd5b50610334600480360381019061032f9190611b1e565b61129c565b005b610350600480360381019061034b9190611b47565b611394565b005b6002818154811061036257600080fd5b90600052602060002090600602016000915090508060000160009054906101000a900473ffffffffffffffffffffffffffffffffffffffff16908060010180546103ab906123f3565b80601f01602080910402602001604051908101604052809291908181526020018280546103d7906123f3565b80156104245780601f106103f957610100808354040283529160200191610424565b820191906000526020600020905b81548152906001019060200180831161040757829003601f168201915b505050505090806002018054610439906123f3565b80601f0160208091040260200160405190810160405280929190818152602001828054610465906123f3565b80156104b25780601f10610487576101008083540402835291602001916104b2565b820191906000526020600020905b81548152906001019060200180831161049557829003601f168201915b5050505050908060030180546104c7906123f3565b80601f01602080910402602001604051908101604052809291908181526020018280546104f3906123f3565b80156105405780601f1061051557610100808354040283529160200191610540565b820191906000526020600020905b81548152906001019060200180831161052357829003601f168201915b5050505050908060050160009054906101000a900460ff16905085565b61056561168e565b73ffffffffffffffffffffffffffffffffffffffff16610583610830565b73ffffffffffffffffffffffffffffffffffffffff16146105d9576040517f08c379a00000000000000000000000000000000000000000000000000000000081526004016105d09061221c565b60405180910390fd5b6105e1611696565b565b60008060149054906101000a900460ff16905090565b6000600280549050905090565b60005b60028054905081101561071d57828051906020012060028281548110610658577f4e487b7100000000000000000000000000000000000000000000000000000000600052603260045260246000fd5b90600052602060002090600602016001016040516106769190611f7c565b6040518091039020141561070a57600281815481106106be577f4e487b7100000000000000000000000000000000000000000000000000000000600052603260045260246000fd5b90600052602060002090600602016004018290806001815401808255809150506001900390600052602060002001600090919091909150908051906020019061070892919061189e565b505b808061071590612456565b915050610609565b505050565b61072a61168e565b73ffffffffffffffffffffffffffffffffffffffff16610748610830565b73ffffffffffffffffffffffffffffffffffffffff161461079e576040517f08c379a00000000000000000000000000000000000000000000000000000000081526004016107959061221c565b60405180910390fd5b6107a86000611737565b565b6107b261168e565b73ffffffffffffffffffffffffffffffffffffffff166107d0610830565b73ffffffffffffffffffffffffffffffffffffffff1614610826576040517f08c379a000000000000000000000000000000000000000000000000000000000815260040161081d9061221c565b60405180910390fd5b61082e6117fb565b565b60008060009054906101000a900473ffffffffffffffffffffffffffffffffffffffff16905090565b60606001805480602002602001604051908101604052809291908181526020016000905b8282101561092957838290600052602060002001805461089c906123f3565b80601f01602080910402602001604051908101604052809291908181526020018280546108c8906123f3565b80156109155780601f106108ea57610100808354040283529160200191610915565b820191906000526020600020905b8154815290600101906020018083116108f857829003601f168201915b50505050508152602001906001019061087d565b50505050905090565b6000606060005b600280549050811015610acf578373ffffffffffffffffffffffffffffffffffffffff1660028281548110610997577f4e487b7100000000000000000000000000000000000000000000000000000000600052603260045260246000fd5b906000526020600020906006020160000160009054906101000a900473ffffffffffffffffffffffffffffffffffffffff1673ffffffffffffffffffffffffffffffffffffffff161415610abc5760028181548110610a1f577f4e487b7100000000000000000000000000000000000000000000000000000000600052603260045260246000fd5b90600052602060002090600602016002018054610a3b906123f3565b80601f0160208091040260200160405190810160405280929190818152602001828054610a67906123f3565b8015610ab45780601f10610a8957610100808354040283529160200191610ab4565b820191906000526020600020905b815481529060010190602001808311610a9757829003601f168201915b505050505091505b8080610ac790612456565b915050610939565b5060005b600180549050811015610b6557818051906020012060018281548110610b22577f4e487b7100000000000000000000000000000000000000000000000000000000600052603260045260246000fd5b90600052602060002001604051610b399190611f7c565b60405180910390201415610b5257600192505050610b6c565b8080610b5d90612456565b915050610ad3565b5060009150505b919050565b606080606080600080600090505b60028054905081101561104a578673ffffffffffffffffffffffffffffffffffffffff1660028281548110610bdd577f4e487b7100000000000000000000000000000000000000000000000000000000600052603260045260246000fd5b906000526020600020906006020160000160009054906101000a900473ffffffffffffffffffffffffffffffffffffffff1673ffffffffffffffffffffffffffffffffffffffff1614156110375760028181548110610c65577f4e487b7100000000000000000000000000000000000000000000000000000000600052603260045260246000fd5b906000526020600020906006020160010160028281548110610cb0577f4e487b7100000000000000000000000000000000000000000000000000000000600052603260045260246000fd5b906000526020600020906006020160020160028381548110610cfb577f4e487b7100000000000000000000000000000000000000000000000000000000600052603260045260246000fd5b906000526020600020906006020160030160028481548110610d46577f4e487b7100000000000000000000000000000000000000000000000000000000600052603260045260246000fd5b906000526020600020906006020160040160028581548110610d91577f4e487b7100000000000000000000000000000000000000000000000000000000600052603260045260246000fd5b906000526020600020906006020160050160009054906101000a900460ff16848054610dbc906123f3565b80601f0160208091040260200160405190810160405280929190818152602001828054610de8906123f3565b8015610e355780601f10610e0a57610100808354040283529160200191610e35565b820191906000526020600020905b815481529060010190602001808311610e1857829003601f168201915b50505050509450838054610e48906123f3565b80601f0160208091040260200160405190810160405280929190818152602001828054610e74906123f3565b8015610ec15780601f10610e9657610100808354040283529160200191610ec1565b820191906000526020600020905b815481529060010190602001808311610ea457829003601f168201915b50505050509350828054610ed4906123f3565b80601f0160208091040260200160405190810160405280929190818152602001828054610f00906123f3565b8015610f4d5780601f10610f2257610100808354040283529160200191610f4d565b820191906000526020600020905b815481529060010190602001808311610f3057829003601f168201915b5050505050925081805480602002602001604051908101604052809291908181526020016000905b82821015611021578382906000526020600020018054610f94906123f3565b80601f0160208091040260200160405190810160405280929190818152602001828054610fc0906123f3565b801561100d5780601f10610fe25761010080835404028352916020019161100d565b820191906000526020600020905b815481529060010190602001808311610ff057829003601f168201915b505050505081526020019060010190610f75565b5050505091509550955095509550955050611086565b808061104290612456565b915050610b7f565b506040517f08c379a000000000000000000000000000000000000000000000000000000000815260040161107d906121dc565b60405180910390fd5b91939590929450565b7f65d7a28e3265b37a6474929f336521b332c1681b933f6cb9f3376673440d862a81565b6110bb61168e565b73ffffffffffffffffffffffffffffffffffffffff166110d9610830565b73ffffffffffffffffffffffffffffffffffffffff161461112f576040517f08c379a00000000000000000000000000000000000000000000000000000000081526004016111269061221c565b60405180910390fd5b60018190806001815401808255809150506001900390600052602060002001600090919091909150908051906020019061116a92919061189e565b5060005b600280549050811015611261578180519060200120600282815481106111bd577f4e487b7100000000000000000000000000000000000000000000000000000000600052603260045260246000fd5b90600052602060002090600602016002016040516111db9190611f7c565b6040518091039020141561124e57600160028281548110611225577f4e487b7100000000000000000000000000000000000000000000000000000000600052603260045260246000fd5b906000526020600020906006020160050160006101000a81548160ff0219169083151502179055505b808061125990612456565b91505061116e565b507f72248c488ef1ac03c55deb005d2bf8f656ca031b7eccd32bb314a0492059f2528160405161129191906120eb565b60405180910390a150565b6112a461168e565b73ffffffffffffffffffffffffffffffffffffffff166112c2610830565b73ffffffffffffffffffffffffffffffffffffffff1614611318576040517f08c379a000000000000000000000000000000000000000000000000000000000815260040161130f9061221c565b60405180910390fd5b600073ffffffffffffffffffffffffffffffffffffffff168173ffffffffffffffffffffffffffffffffffffffff161415611388576040517f08c379a000000000000000000000000000000000000000000000000000000000815260040161137f9061219c565b60405180910390fd5b61139181611737565b50565b60005b600280549050811015611460578380519060200120600282815481106113e6577f4e487b7100000000000000000000000000000000000000000000000000000000600052603260045260246000fd5b90600052602060002090600602016002016040516114049190611f7c565b6040518091039020141561144d576040517f08c379a0000000000000000000000000000000000000000000000000000000008152600401611444906121bc565b60405180910390fd5b808061145890612456565b915050611397565b506000805b6001805490508110156114f1578480519060200120600182815481106114b4577f4e487b7100000000000000000000000000000000000000000000000000000000600052603260045260246000fd5b906000526020600020016040516114cb9190611f7c565b604051809103902014156114de57600191505b80806114e990612456565b915050611465565b5060006040518060c001604052808873ffffffffffffffffffffffffffffffffffffffff1681526020018781526020018681526020018581526020018481526020018315158152509050600281908060018154018082558091505060019003906000526020600020906006020160009091909190915060008201518160000160006101000a81548173ffffffffffffffffffffffffffffffffffffffff021916908373ffffffffffffffffffffffffffffffffffffffff16021790555060208201518160010190805190602001906115ca92919061189e565b5060408201518160020190805190602001906115e792919061189e565b50606082015181600301908051906020019061160492919061189e565b506080820151816004019080519060200190611621929190611924565b5060a08201518160050160006101000a81548160ff02191690831515021790555050507ff2bc8a762af49524cd1af3e1731bd56d0435fdaec10cf5d8ae9897e1a3ae4e7e87878787878760405161167d96959493929190611fae565b60405180910390a150505050505050565b600033905090565b61169e6105e3565b6116dd576040517f08c379a00000000000000000000000000000000000000000000000000000000081526004016116d49061217c565b60405180910390fd5b60008060146101000a81548160ff0219169083151502179055507f5db9ee0a495bf2e6ff9c91a7834c1ba4fdd244a5e8aa4e537bd38aeae4b073aa61172061168e565b60405161172d9190611f93565b60405180910390a1565b60008060009054906101000a900473ffffffffffffffffffffffffffffffffffffffff169050816000806101000a81548173ffffffffffffffffffffffffffffffffffffffff021916908373ffffffffffffffffffffffffffffffffffffffff1602179055508173ffffffffffffffffffffffffffffffffffffffff168173ffffffffffffffffffffffffffffffffffffffff167f8be0079c531659141344cd1fd0a4f28419497f9722a3daafe3b4186f6b6457e060405160405180910390a35050565b6118036105e3565b15611843576040517f08c379a000000000000000000000000000000000000000000000000000000000815260040161183a906121fc565b60405180910390fd5b6001600060146101000a81548160ff0219169083151502179055507f62e78cea01bee320cd4e420270b5ea74000d11b0c9f74754ebdbfc544b05a25861188761168e565b6040516118949190611f93565b60405180910390a1565b8280546118aa906123f3565b90600052602060002090601f0160209004810192826118cc5760008555611913565b82601f106118e557805160ff1916838001178555611913565b82800160010185558215611913579182015b828111156119125782518255916020019190600101906118f7565b5b5090506119209190611984565b5090565b828054828255906000526020600020908101928215611973579160200282015b8281111561197257825182908051906020019061196292919061189e565b5091602001919060010190611944565b5b50905061198091906119a1565b5090565b5b8082111561199d576000816000905550600101611985565b5090565b5b808211156119c157600081816119b891906119c5565b506001016119a2565b5090565b5080546119d1906123f3565b6000825580601f106119e35750611a02565b601f016020900490600052602060002090810190611a019190611984565b5b50565b6000611a18611a138461227c565b612257565b9050808382526020820190508260005b85811015611a585781358501611a3e8882611adf565b845260208401935060208301925050600181019050611a28565b5050509392505050565b6000611a75611a70846122a8565b612257565b905082815260208101848484011115611a8d57600080fd5b611a988482856123b1565b509392505050565b600081359050611aaf81612659565b92915050565b600082601f830112611ac657600080fd5b8135611ad6848260208601611a05565b91505092915050565b600082601f830112611af057600080fd5b8135611b00848260208601611a62565b91505092915050565b600081359050611b1881612670565b92915050565b600060208284031215611b3057600080fd5b6000611b3e84828501611aa0565b91505092915050565b600080600080600060a08688031215611b5f57600080fd5b6000611b6d88828901611aa0565b955050602086013567ffffffffffffffff811115611b8a57600080fd5b611b9688828901611adf565b945050604086013567ffffffffffffffff811115611bb357600080fd5b611bbf88828901611adf565b935050606086013567ffffffffffffffff811115611bdc57600080fd5b611be888828901611adf565b925050608086013567ffffffffffffffff811115611c0557600080fd5b611c1188828901611ab5565b9150509295509295909350565b600060208284031215611c3057600080fd5b600082013567ffffffffffffffff811115611c4a57600080fd5b611c5684828501611adf565b91505092915050565b60008060408385031215611c7257600080fd5b600083013567ffffffffffffffff811115611c8c57600080fd5b611c9885828601611adf565b925050602083013567ffffffffffffffff811115611cb557600080fd5b611cc185828601611adf565b9150509250929050565b600060208284031215611cdd57600080fd5b6000611ceb84828501611b09565b91505092915050565b6000611d008383611e29565b905092915050565b611d118161235f565b82525050565b6000611d22826122fe565b611d2c8185612321565b935083602082028501611d3e856122d9565b8060005b85811015611d7a5784840389528151611d5b8582611cf4565b9450611d6683612314565b925060208a01995050600181019050611d42565b50829750879550505050505092915050565b611d9581612371565b82525050565b611da48161237d565b82525050565b60008154611db7816123f3565b611dc18186612332565b94506001821660008114611ddc5760018114611ded57611e20565b60ff19831686528186019350611e20565b611df6856122e9565b60005b83811015611e1857815481890152600182019150602081019050611df9565b838801955050505b50505092915050565b6000611e3482612309565b611e3e818561233d565b9350611e4e8185602086016123c0565b611e578161252c565b840191505092915050565b6000611e6d82612309565b611e77818561234e565b9350611e878185602086016123c0565b611e908161252c565b840191505092915050565b6000611ea860148361234e565b9150611eb38261253d565b602082019050919050565b6000611ecb60268361234e565b9150611ed682612566565b604082019050919050565b6000611eee601b8361234e565b9150611ef9826125b5565b602082019050919050565b6000611f11600a8361234e565b9150611f1c826125de565b602082019050919050565b6000611f3460108361234e565b9150611f3f82612607565b602082019050919050565b6000611f5760208361234e565b9150611f6282612630565b602082019050919050565b611f76816123a7565b82525050565b6000611f888284611daa565b915081905092915050565b6000602082019050611fa86000830184611d08565b92915050565b600060c082019050611fc36000830189611d08565b8181036020830152611fd58188611e62565b90508181036040830152611fe98187611e62565b90508181036060830152611ffd8186611e62565b905081810360808301526120118185611d17565b905061202060a0830184611d8c565b979650505050505050565b600060a0820190506120406000830188611d08565b81810360208301526120528187611e62565b905081810360408301526120668186611e62565b9050818103606083015261207a8185611e62565b90506120896080830184611d8c565b9695505050505050565b600060208201905081810360008301526120ad8184611d17565b905092915050565b60006020820190506120ca6000830184611d8c565b92915050565b60006020820190506120e56000830184611d9b565b92915050565b600060208201905081810360008301526121058184611e62565b905092915050565b600060a08201905081810360008301526121278188611e62565b9050818103602083015261213b8187611e62565b9050818103604083015261214f8186611e62565b905081810360608301526121638185611d17565b90506121726080830184611d8c565b9695505050505050565b6000602082019050818103600083015261219581611e9b565b9050919050565b600060208201905081810360008301526121b581611ebe565b9050919050565b600060208201905081810360008301526121d581611ee1565b9050919050565b600060208201905081810360008301526121f581611f04565b9050919050565b6000602082019050818103600083015261221581611f27565b9050919050565b6000602082019050818103600083015261223581611f4a565b9050919050565b60006020820190506122516000830184611f6d565b92915050565b6000612261612272565b905061226d8282612425565b919050565b6000604051905090565b600067ffffffffffffffff821115612297576122966124fd565b5b602082029050602081019050919050565b600067ffffffffffffffff8211156122c3576122c26124fd565b5b6122cc8261252c565b9050602081019050919050565b6000819050602082019050919050565b60008190508160005260206000209050919050565b600081519050919050565b600081519050919050565b6000602082019050919050565b600082825260208201905092915050565b600081905092915050565b600082825260208201905092915050565b600082825260208201905092915050565b600061236a82612387565b9050919050565b60008115159050919050565b6000819050919050565b600073ffffffffffffffffffffffffffffffffffffffff82169050919050565b6000819050919050565b82818337600083830152505050565b60005b838110156123de5780820151818401526020810190506123c3565b838111156123ed576000848401525b50505050565b6000600282049050600182168061240b57607f821691505b6020821081141561241f5761241e6124ce565b5b50919050565b61242e8261252c565b810181811067ffffffffffffffff8211171561244d5761244c6124fd565b5b80604052505050565b6000612461826123a7565b91507fffffffffffffffffffffffffffffffffffffffffffffffffffffffffffffffff8214156124945761249361249f565b5b600182019050919050565b7f4e487b7100000000000000000000000000000000000000000000000000000000600052601160045260246000fd5b7f4e487b7100000000000000000000000000000000000000000000000000000000600052602260045260246000fd5b7f4e487b7100000000000000000000000000000000000000000000000000000000600052604160045260246000fd5b6000601f19601f8301169050919050565b7f5061757361626c653a206e6f7420706175736564000000000000000000000000600082015250565b7f4f776e61626c653a206e6577206f776e657220697320746865207a65726f206160008201527f6464726573730000000000000000000000000000000000000000000000000000602082015250565b7f4f7267616e69736174696f6e20616c7265616479206578697374730000000000600082015250565b7f4e6f7420466f756e642100000000000000000000000000000000000000000000600082015250565b7f5061757361626c653a2070617573656400000000000000000000000000000000600082015250565b7f4f776e61626c653a2063616c6c6572206973206e6f7420746865206f776e6572600082015250565b6126628161235f565b811461266d57600080fd5b50565b612679816123a7565b811461268457600080fd5b5056fea2646970667358221220d46645366a03e49940332ee4c7638797615d27bb8a24ec63a18781f6fdee328764736f6c63430008030033",
	"immutableReferences": {},
	"source": "//SPDX-License-Identifier: Unlicensed\n/// @custom:security-contact krish.mehta@uwaterloo.ca\npragma solidity ^0.8.0;\n\n//import \"hardhat/console.sol\";\nimport \"@openzeppelin/contracts/access/Ownable.sol\";\nimport \"@openzeppelin/contracts/security/Pausable.sol\";\n\ncontract SmartOrganisation is Ownable, Pausable {\n    /**\n     * @dev Set who may pause the contract\n     */\n    bytes32 public constant PAUSER_ROLE = keccak256(\"PAUSER_ROLE\");\n\n    /**\n     * @dev Initialize a list of verified businesses\n     */\n    string[] verifiedBusinesses;\n\n    struct Organisation {\n        address _orgOwner;\n        string uid;\n        string businessNumber;\n        string orgName;\n        string[] members;\n        bool verified;\n    }\n\n    constructor() {\n        verifiedBusinesses = [\"1234567890\"];\n    }\n\n    Organisation[] public organisations;\n\n    /**\n     * @dev log transaction whenever new business is added to the verified business list\n     */\n    event newBusinessAdded(string businessNumber);\n\n    // Create an event when a new item is added, you can use this to update remote item lists.\n    event OrganisationCreated(\n        address _orgOwner,\n        string uid,\n        string businessNumber,\n        string orgName,\n        string[] members,\n        bool verified\n    );\n\n    // Adds an item to the user's Item list who called the function.\n    function createOrg(\n        address _user,\n        string memory uid,\n        string memory businessNumber,\n        string memory orgName,\n        string[] memory members\n    ) public payable {\n        for (uint256 i = 0; i < organisations.length; i++) {\n            require(\n                keccak256(bytes(organisations[i].businessNumber)) !=\n                    keccak256(bytes(businessNumber)),\n                \"Organisation already exists\"\n            );\n        }\n        bool verify = false;\n\n        for (uint256 i = 0; i < verifiedBusinesses.length; i++) {\n            if (\n                keccak256(bytes(verifiedBusinesses[i])) ==\n                keccak256(bytes(businessNumber))\n            ) {\n                verify = true;\n            }\n        }\n        Organisation memory newOrg = Organisation(\n            _user,\n            uid,\n            businessNumber,\n            orgName,\n            members,\n            verify\n        );\n        organisations.push(newOrg);\n\n        // emits item added event.\n        emit OrganisationCreated(\n            _user,\n            uid,\n            businessNumber,\n            orgName,\n            members,\n            verify\n        );\n    }\n\n    /**\n     * @dev pauses the contract\n     */\n    function pause() public onlyOwner {\n        _pause();\n    }\n\n    /**\n     * @dev unpauses the contract\n     */\n    function unpause() public onlyOwner {\n        _unpause();\n    }\n\n    function getTotalOrganisations() public view returns (uint256) {\n        return organisations.length;\n    }\n\n    function addVerifiedBusiness(string memory _bnumber) public onlyOwner {\n        verifiedBusinesses.push(_bnumber);\n        for (uint256 i = 0; i < organisations.length; i++) {\n            if (\n                keccak256(bytes(organisations[i].businessNumber)) ==\n                keccak256(bytes(_bnumber))\n            ) {\n                organisations[i].verified = true;\n            }\n        }\n        emit newBusinessAdded(_bnumber);\n    }\n\n    function getAllVerifiedBusinesses() public view returns (string[] memory) {\n        return verifiedBusinesses;\n    }\n\n    function getOrgInfo(address _orgOwner)\n        public\n        view\n        returns (\n            string memory,\n            string memory,\n            string memory,\n            string[] memory,\n            bool\n        )\n    {\n        for (uint256 i = 0; i < organisations.length; i++) {\n            if (organisations[i]._orgOwner == _orgOwner) {\n                return (\n                    organisations[i].uid,\n                    organisations[i].businessNumber,\n                    organisations[i].orgName,\n                    organisations[i].members,\n                    organisations[i].verified\n                );\n            }\n        }\n        revert(\"Not Found!\");\n    }\n\n    function getOrgVerification(address _orgOwner) public view returns (bool) {\n        string memory bnumber;\n        for (uint256 i = 0; i < organisations.length; i++) {\n            if (organisations[i]._orgOwner == _orgOwner) {\n                bnumber = organisations[i].businessNumber;\n            }\n        }\n        for (uint256 i = 0; i < verifiedBusinesses.length; i++) {\n            if (\n                keccak256(bytes(verifiedBusinesses[i])) ==\n                keccak256(bytes(bnumber))\n            ) {\n                return true;\n            }\n        }\n        return false;\n    }\n\n    function addMembers(string memory _uid, string memory memberAddress)\n        public\n        payable\n    {\n        for (uint256 i = 0; i < organisations.length; i++) {\n            if (\n                keccak256(bytes(organisations[i].uid)) == keccak256(bytes(_uid))\n            ) {\n                organisations[i].members.push(memberAddress);\n            }\n        }\n    }\n}\n",
	"sourcePath": "/home/djkesu/Desktop/Projects/SmartWaterlooEth/contracts/SmartOrganisation.sol",
	"compiler": {
		"name": "solc",
		"version": "0.8.3+commit.8d00100c.Emscripten.clang"
	},
	"schemaVersion": "3.4.5",
	"updatedAt": "2022-04-15T04:44:54.437Z",
	"networkType": "ethereum",
	"devdoc": {
		"events": {
			"newBusinessAdded(string)": {
				"details": "log transaction whenever new business is added to the verified business list"
			}
		},
		"kind": "dev",
		"methods": {
			"owner()": {
				"details": "Returns the address of the current owner."
			},
			"pause()": {
				"details": "pauses the contract"
			},
			"paused()": {
				"details": "Returns true if the contract is paused, and false otherwise."
			},
			"renounceOwnership()": {
				"details": "Leaves the contract without owner. It will not be possible to call `onlyOwner` functions anymore. Can only be called by the current owner. NOTE: Renouncing ownership will leave the contract without an owner, thereby removing any functionality that is only available to the owner."
			},
			"transferOwnership(address)": {
				"details": "Transfers ownership of the contract to a new account (`newOwner`). Can only be called by the current owner."
			},
			"unpause()": {
				"details": "unpauses the contract"
			}
		},
		"stateVariables": {
			"PAUSER_ROLE": {
				"details": "Set who may pause the contract"
			},
			"verifiedBusinesses": {
				"details": "Initialize a list of verified businesses"
			}
		},
		"version": 1
	},
	"userdoc": {
		"kind": "user",
		"methods": {},
		"version": 1
	}
}