{
	"contractName": "SmartUser",
	"abi": [
		{
			"inputs": [],
			"stateMutability": "nonpayable",
			"type": "constructor"
		},
		{
			"anonymous": false,
			"inputs": [
				{
					"indexed": true,
					"internalType": "address",
					"name": "previousOwner",
					"type": "address"
				},
				{
					"indexed": true,
					"internalType": "address",
					"name": "newOwner",
					"type": "address"
				}
			],
			"name": "OwnershipTransferred",
			"type": "event"
		},
		{
			"anonymous": false,
			"inputs": [
				{
					"indexed": false,
					"internalType": "address",
					"name": "account",
					"type": "address"
				}
			],
			"name": "Paused",
			"type": "event"
		},
		{
			"anonymous": false,
			"inputs": [
				{
					"indexed": false,
					"internalType": "address",
					"name": "account",
					"type": "address"
				}
			],
			"name": "Unpaused",
			"type": "event"
		},
		{
			"inputs": [],
			"name": "PAUSER_ROLE",
			"outputs": [
				{
					"internalType": "bytes32",
					"name": "",
					"type": "bytes32"
				}
			],
			"stateMutability": "view",
			"type": "function",
			"constant": true
		},
		{
			"inputs": [],
			"name": "owner",
			"outputs": [
				{
					"internalType": "address",
					"name": "",
					"type": "address"
				}
			],
			"stateMutability": "view",
			"type": "function",
			"constant": true
		},
		{
			"inputs": [],
			"name": "paused",
			"outputs": [
				{
					"internalType": "bool",
					"name": "",
					"type": "bool"
				}
			],
			"stateMutability": "view",
			"type": "function",
			"constant": true
		},
		{
			"inputs": [],
			"name": "renounceOwnership",
			"outputs": [],
			"stateMutability": "nonpayable",
			"type": "function"
		},
		{
			"inputs": [
				{
					"internalType": "address",
					"name": "newOwner",
					"type": "address"
				}
			],
			"name": "transferOwnership",
			"outputs": [],
			"stateMutability": "nonpayable",
			"type": "function"
		},
		{
			"inputs": [
				{
					"internalType": "address",
					"name": "_user",
					"type": "address"
				},
				{
					"internalType": "string[]",
					"name": "_initialData",
					"type": "string[]"
				}
			],
			"name": "addInfo",
			"outputs": [],
			"stateMutability": "payable",
			"type": "function",
			"payable": true
		},
		{
			"inputs": [],
			"name": "pause",
			"outputs": [],
			"stateMutability": "nonpayable",
			"type": "function"
		},
		{
			"inputs": [],
			"name": "unpause",
			"outputs": [],
			"stateMutability": "nonpayable",
			"type": "function"
		},
		{
			"inputs": [
				{
					"internalType": "address",
					"name": "_addr",
					"type": "address"
				}
			],
			"name": "getInfo",
			"outputs": [
				{
					"internalType": "string[]",
					"name": "",
					"type": "string[]"
				}
			],
			"stateMutability": "view",
			"type": "function",
			"constant": true
		},
		{
			"inputs": [],
			"name": "getTotalUsers",
			"outputs": [
				{
					"internalType": "uint256",
					"name": "",
					"type": "uint256"
				}
			],
			"stateMutability": "view",
			"type": "function",
			"constant": true
		}
	],
	"bytecode": "0x6080604052600060025534801561001557600080fd5b5061003261002761005160201b60201c565b61005960201b60201c565b60008060146101000a81548160ff02191690831515021790555061011d565b600033905090565b60008060009054906101000a900473ffffffffffffffffffffffffffffffffffffffff169050816000806101000a81548173ffffffffffffffffffffffffffffffffffffffff021916908373ffffffffffffffffffffffffffffffffffffffff1602179055508173ffffffffffffffffffffffffffffffffffffffff168173ffffffffffffffffffffffffffffffffffffffff167f8be0079c531659141344cd1fd0a4f28419497f9722a3daafe3b4186f6b6457e060405160405180910390a35050565b6112e28061012c6000396000f3fe6080604052600436106100915760003560e01c80638da5cb5b116100595780638da5cb5b146101225780639be572f61461014d578063e63ab1e914610178578063f2fde38b146101a3578063ffdd5cf1146101cc57610091565b80633f4ba83a146100965780635c975abb146100ad578063715018a6146100d8578063755428e1146100ef5780638456cb591461010b575b600080fd5b3480156100a257600080fd5b506100ab610209565b005b3480156100b957600080fd5b506100c261028f565b6040516100cf9190610db8565b60405180910390f35b3480156100e457600080fd5b506100ed6102a5565b005b61010960048036038101906101049190610b7a565b61032d565b005b34801561011757600080fd5b506101206103e6565b005b34801561012e57600080fd5b5061013761046c565b6040516101449190610d7b565b60405180910390f35b34801561015957600080fd5b50610162610495565b60405161016f9190610e8e565b60405180910390f35b34801561018457600080fd5b5061018d61049f565b60405161019a9190610dd3565b60405180910390f35b3480156101af57600080fd5b506101ca60048036038101906101c59190610b51565b6104c3565b005b3480156101d857600080fd5b506101f360048036038101906101ee9190610b51565b6105bb565b6040516102009190610d96565b60405180910390f35b6102116106d6565b73ffffffffffffffffffffffffffffffffffffffff1661022f61046c565b73ffffffffffffffffffffffffffffffffffffffff1614610285576040517f08c379a000000000000000000000000000000000000000000000000000000000815260040161027c90610e4e565b60405180910390fd5b61028d6106de565b565b60008060149054906101000a900460ff16905090565b6102ad6106d6565b73ffffffffffffffffffffffffffffffffffffffff166102cb61046c565b73ffffffffffffffffffffffffffffffffffffffff1614610321576040517f08c379a000000000000000000000000000000000000000000000000000000000815260040161031890610e4e565b60405180910390fd5b61032b600061077f565b565b600a815114610371576040517f08c379a000000000000000000000000000000000000000000000000000000000815260040161036890610e6e565b60405180910390fd5b80600160008473ffffffffffffffffffffffffffffffffffffffff1673ffffffffffffffffffffffffffffffffffffffff16815260200190815260200160002060000190805190602001906103c79291906108e6565b506001600260008282546103db9190610f91565b925050819055505050565b6103ee6106d6565b73ffffffffffffffffffffffffffffffffffffffff1661040c61046c565b73ffffffffffffffffffffffffffffffffffffffff1614610462576040517f08c379a000000000000000000000000000000000000000000000000000000000815260040161045990610e4e565b60405180910390fd5b61046a610843565b565b60008060009054906101000a900473ffffffffffffffffffffffffffffffffffffffff16905090565b6000600254905090565b7f65d7a28e3265b37a6474929f336521b332c1681b933f6cb9f3376673440d862a81565b6104cb6106d6565b73ffffffffffffffffffffffffffffffffffffffff166104e961046c565b73ffffffffffffffffffffffffffffffffffffffff161461053f576040517f08c379a000000000000000000000000000000000000000000000000000000000815260040161053690610e4e565b60405180910390fd5b600073ffffffffffffffffffffffffffffffffffffffff168173ffffffffffffffffffffffffffffffffffffffff1614156105af576040517f08c379a00000000000000000000000000000000000000000000000000000000081526004016105a690610e0e565b60405180910390fd5b6105b88161077f565b50565b6060600160008373ffffffffffffffffffffffffffffffffffffffff1673ffffffffffffffffffffffffffffffffffffffff168152602001908152602001600020600001805480602002602001604051908101604052809291908181526020016000905b828210156106cb57838290600052602060002001805461063e9061107b565b80601f016020809104026020016040519081016040528092919081815260200182805461066a9061107b565b80156106b75780601f1061068c576101008083540402835291602001916106b7565b820191906000526020600020905b81548152906001019060200180831161069a57829003601f168201915b50505050508152602001906001019061061f565b505050509050919050565b600033905090565b6106e661028f565b610725576040517f08c379a000000000000000000000000000000000000000000000000000000000815260040161071c90610dee565b60405180910390fd5b60008060146101000a81548160ff0219169083151502179055507f5db9ee0a495bf2e6ff9c91a7834c1ba4fdd244a5e8aa4e537bd38aeae4b073aa6107686106d6565b6040516107759190610d7b565b60405180910390a1565b60008060009054906101000a900473ffffffffffffffffffffffffffffffffffffffff169050816000806101000a81548173ffffffffffffffffffffffffffffffffffffffff021916908373ffffffffffffffffffffffffffffffffffffffff1602179055508173ffffffffffffffffffffffffffffffffffffffff168173ffffffffffffffffffffffffffffffffffffffff167f8be0079c531659141344cd1fd0a4f28419497f9722a3daafe3b4186f6b6457e060405160405180910390a35050565b61084b61028f565b1561088b576040517f08c379a000000000000000000000000000000000000000000000000000000000815260040161088290610e2e565b60405180910390fd5b6001600060146101000a81548160ff0219169083151502179055507f62e78cea01bee320cd4e420270b5ea74000d11b0c9f74754ebdbfc544b05a2586108cf6106d6565b6040516108dc9190610d7b565b60405180910390a1565b828054828255906000526020600020908101928215610935579160200282015b82811115610934578251829080519060200190610924929190610946565b5091602001919060010190610906565b5b50905061094291906109cc565b5090565b8280546109529061107b565b90600052602060002090601f01602090048101928261097457600085556109bb565b82601f1061098d57805160ff19168380011785556109bb565b828001600101855582156109bb579182015b828111156109ba57825182559160200191906001019061099f565b5b5090506109c891906109f0565b5090565b5b808211156109ec57600081816109e39190610a0d565b506001016109cd565b5090565b5b80821115610a095760008160009055506001016109f1565b5090565b508054610a199061107b565b6000825580601f10610a2b5750610a4a565b601f016020900490600052602060002090810190610a4991906109f0565b5b50565b6000610a60610a5b84610ece565b610ea9565b9050808382526020820190508260005b85811015610aa05781358501610a868882610b27565b845260208401935060208301925050600181019050610a70565b5050509392505050565b6000610abd610ab884610efa565b610ea9565b905082815260208101848484011115610ad557600080fd5b610ae0848285611039565b509392505050565b600081359050610af781611295565b92915050565b600082601f830112610b0e57600080fd5b8135610b1e848260208601610a4d565b91505092915050565b600082601f830112610b3857600080fd5b8135610b48848260208601610aaa565b91505092915050565b600060208284031215610b6357600080fd5b6000610b7184828501610ae8565b91505092915050565b60008060408385031215610b8d57600080fd5b6000610b9b85828601610ae8565b925050602083013567ffffffffffffffff811115610bb857600080fd5b610bc485828601610afd565b9150509250929050565b6000610bda8383610c84565b905092915050565b610beb81610fe7565b82525050565b6000610bfc82610f3b565b610c068185610f5e565b935083602082028501610c1885610f2b565b8060005b85811015610c545784840389528151610c358582610bce565b9450610c4083610f51565b925060208a01995050600181019050610c1c565b50829750879550505050505092915050565b610c6f81610ff9565b82525050565b610c7e81611005565b82525050565b6000610c8f82610f46565b610c998185610f6f565b9350610ca9818560208601611048565b610cb28161116b565b840191505092915050565b6000610cca601483610f80565b9150610cd58261117c565b602082019050919050565b6000610ced602683610f80565b9150610cf8826111a5565b604082019050919050565b6000610d10601083610f80565b9150610d1b826111f4565b602082019050919050565b6000610d33602083610f80565b9150610d3e8261121d565b602082019050919050565b6000610d56602d83610f80565b9150610d6182611246565b604082019050919050565b610d758161102f565b82525050565b6000602082019050610d906000830184610be2565b92915050565b60006020820190508181036000830152610db08184610bf1565b905092915050565b6000602082019050610dcd6000830184610c66565b92915050565b6000602082019050610de86000830184610c75565b92915050565b60006020820190508181036000830152610e0781610cbd565b9050919050565b60006020820190508181036000830152610e2781610ce0565b9050919050565b60006020820190508181036000830152610e4781610d03565b9050919050565b60006020820190508181036000830152610e6781610d26565b9050919050565b60006020820190508181036000830152610e8781610d49565b9050919050565b6000602082019050610ea36000830184610d6c565b92915050565b6000610eb3610ec4565b9050610ebf82826110ad565b919050565b6000604051905090565b600067ffffffffffffffff821115610ee957610ee861113c565b5b602082029050602081019050919050565b600067ffffffffffffffff821115610f1557610f1461113c565b5b610f1e8261116b565b9050602081019050919050565b6000819050602082019050919050565b600081519050919050565b600081519050919050565b6000602082019050919050565b600082825260208201905092915050565b600082825260208201905092915050565b600082825260208201905092915050565b6000610f9c8261102f565b9150610fa78361102f565b9250827fffffffffffffffffffffffffffffffffffffffffffffffffffffffffffffffff03821115610fdc57610fdb6110de565b5b828201905092915050565b6000610ff28261100f565b9050919050565b60008115159050919050565b6000819050919050565b600073ffffffffffffffffffffffffffffffffffffffff82169050919050565b6000819050919050565b82818337600083830152505050565b60005b8381101561106657808201518184015260208101905061104b565b83811115611075576000848401525b50505050565b6000600282049050600182168061109357607f821691505b602082108114156110a7576110a661110d565b5b50919050565b6110b68261116b565b810181811067ffffffffffffffff821117156110d5576110d461113c565b5b80604052505050565b7f4e487b7100000000000000000000000000000000000000000000000000000000600052601160045260246000fd5b7f4e487b7100000000000000000000000000000000000000000000000000000000600052602260045260246000fd5b7f4e487b7100000000000000000000000000000000000000000000000000000000600052604160045260246000fd5b6000601f19601f8301169050919050565b7f5061757361626c653a206e6f7420706175736564000000000000000000000000600082015250565b7f4f776e61626c653a206e6577206f776e657220697320746865207a65726f206160008201527f6464726573730000000000000000000000000000000000000000000000000000602082015250565b7f5061757361626c653a2070617573656400000000000000000000000000000000600082015250565b7f4f776e61626c653a2063616c6c6572206973206e6f7420746865206f776e6572600082015250565b7f547269656420696e73657274696e67206d6f726520656c656d656e747320696e60008201527f20696e697469616c204461746100000000000000000000000000000000000000602082015250565b61129e81610fe7565b81146112a957600080fd5b5056fea264697066735822122076649bcafaf3b7466e719fa27e9e395b194ba0f32283440336bce1b867409d9864736f6c63430008030033",
	"immutableReferences": {},
	"source": "//SPDX-License-Identifier: Unlicensed\n/// @custom:security-contact krish.mehta@uwaterloo.ca\n\npragma solidity ^0.8.0;\n\n//import \"hardhat/console.sol\";\nimport \"@openzeppelin/contracts/access/Ownable.sol\";\nimport \"@openzeppelin/contracts/security/Pausable.sol\";\n\n//Inital data structuring\n// string uid;\n// string birthdate;\n// string gender;\n// string body;\n// string grade;\n// string postalCode;\n// string race;\n// string religion;\n// string sexuality;\n// string nickname;\n// string avatarString\n\ncontract SmartUser is Ownable, Pausable {\n    /**\n     * @dev Set who may pause the contract\n     */\n    bytes32 public constant PAUSER_ROLE = keccak256(\"PAUSER_ROLE\");\n\n    /**\n     * @dev Create a struct to store User Info\n     */\n\n    struct Info {\n        string[] initialData;\n    }\n\n    /**\n     * @dev Create an array of 'Info' structs\n     */\n    mapping(address => Info) infos;\n\n    uint counter = 0;\n\n    constructor() {}\n\n    function addInfo(address _user, string[] memory _initialData)\n        public\n        payable\n    {\n        if (_initialData.length != 10) {\n            revert(\"Tried inserting more elements in initial Data\");\n        }\n\n        infos[_user].initialData = _initialData;\n        counter += 1;\n    }\n\n    /**\n     * @dev pauses the contract\n     */\n    function pause() public onlyOwner {\n        _pause();\n    }\n\n    /**\n     * @dev unpauses the contract\n     */\n    function unpause() public onlyOwner {\n        _unpause();\n    }\n\n    /**\n     * @dev send address to retrieve information\n     */\n    function getInfo(address _addr) public view returns (string[] memory) {\n        return infos[_addr].initialData;\n    }\n\n    /**\n     * @dev get a Total Count of signed up addresses\n     */\n    function getTotalUsers() public view returns (uint256) {\n        return counter;\n    }\n}\n",
	"sourcePath": "/home/djkesu/Desktop/Projects/SmartWaterlooEth/contracts/SmartUser.sol",
	"compiler": {
		"name": "solc",
		"version": "0.8.3+commit.8d00100c.Emscripten.clang"
	},
	"schemaVersion": "3.4.5",
	"updatedAt": "2022-04-15T04:44:54.431Z",
	"networkType": "ethereum",
	"devdoc": {
		"kind": "dev",
		"methods": {
			"getInfo(address)": {
				"details": "send address to retrieve information"
			},
			"getTotalUsers()": {
				"details": "get a Total Count of signed up addresses"
			},
			"owner()": {
				"details": "Returns the address of the current owner."
			},
			"pause()": {
				"details": "pauses the contract"
			},
			"paused()": {
				"details": "Returns true if the contract is paused, and false otherwise."
			},
			"renounceOwnership()": {
				"details": "Leaves the contract without owner. It will not be possible to call `onlyOwner` functions anymore. Can only be called by the current owner. NOTE: Renouncing ownership will leave the contract without an owner, thereby removing any functionality that is only available to the owner."
			},
			"transferOwnership(address)": {
				"details": "Transfers ownership of the contract to a new account (`newOwner`). Can only be called by the current owner."
			},
			"unpause()": {
				"details": "unpauses the contract"
			}
		},
		"stateVariables": {
			"PAUSER_ROLE": {
				"details": "Set who may pause the contract"
			},
			"infos": {
				"details": "Create an array of 'Info' structs"
			}
		},
		"version": 1
	},
	"userdoc": {
		"kind": "user",
		"methods": {},
		"version": 1
	}
}