{
	"contractName": "UserSurveyResponses",
	"abi": [
		{
			"inputs": [],
			"stateMutability": "nonpayable",
			"type": "constructor"
		},
		{
			"anonymous": false,
			"inputs": [
				{
					"indexed": true,
					"internalType": "address",
					"name": "previousOwner",
					"type": "address"
				},
				{
					"indexed": true,
					"internalType": "address",
					"name": "newOwner",
					"type": "address"
				}
			],
			"name": "OwnershipTransferred",
			"type": "event"
		},
		{
			"anonymous": false,
			"inputs": [
				{
					"indexed": false,
					"internalType": "address",
					"name": "account",
					"type": "address"
				}
			],
			"name": "Paused",
			"type": "event"
		},
		{
			"anonymous": false,
			"inputs": [
				{
					"indexed": false,
					"internalType": "address",
					"name": "account",
					"type": "address"
				}
			],
			"name": "Unpaused",
			"type": "event"
		},
		{
			"inputs": [],
			"name": "PAUSER_ROLE",
			"outputs": [
				{
					"internalType": "bytes32",
					"name": "",
					"type": "bytes32"
				}
			],
			"stateMutability": "view",
			"type": "function",
			"constant": true
		},
		{
			"inputs": [],
			"name": "owner",
			"outputs": [
				{
					"internalType": "address",
					"name": "",
					"type": "address"
				}
			],
			"stateMutability": "view",
			"type": "function",
			"constant": true
		},
		{
			"inputs": [],
			"name": "paused",
			"outputs": [
				{
					"internalType": "bool",
					"name": "",
					"type": "bool"
				}
			],
			"stateMutability": "view",
			"type": "function",
			"constant": true
		},
		{
			"inputs": [],
			"name": "renounceOwnership",
			"outputs": [],
			"stateMutability": "nonpayable",
			"type": "function"
		},
		{
			"inputs": [
				{
					"internalType": "uint256",
					"name": "",
					"type": "uint256"
				}
			],
			"name": "responses",
			"outputs": [
				{
					"internalType": "address",
					"name": "user",
					"type": "address"
				},
				{
					"internalType": "string",
					"name": "sId",
					"type": "string"
				}
			],
			"stateMutability": "view",
			"type": "function",
			"constant": true
		},
		{
			"inputs": [
				{
					"internalType": "address",
					"name": "newOwner",
					"type": "address"
				}
			],
			"name": "transferOwnership",
			"outputs": [],
			"stateMutability": "nonpayable",
			"type": "function"
		},
		{
			"inputs": [],
			"name": "pause",
			"outputs": [],
			"stateMutability": "nonpayable",
			"type": "function"
		},
		{
			"inputs": [],
			"name": "unpause",
			"outputs": [],
			"stateMutability": "nonpayable",
			"type": "function"
		},
		{
			"inputs": [
				{
					"internalType": "address",
					"name": "_user",
					"type": "address"
				},
				{
					"internalType": "string[]",
					"name": "_response",
					"type": "string[]"
				},
				{
					"internalType": "string",
					"name": "_sId",
					"type": "string"
				}
			],
			"name": "addSurveyResponse",
			"outputs": [],
			"stateMutability": "payable",
			"type": "function",
			"payable": true
		},
		{
			"inputs": [
				{
					"internalType": "address",
					"name": "_user",
					"type": "address"
				}
			],
			"name": "getSurveyResponsesByUser",
			"outputs": [
				{
					"internalType": "string[][]",
					"name": "",
					"type": "string[][]"
				}
			],
			"stateMutability": "view",
			"type": "function",
			"constant": true
		},
		{
			"inputs": [
				{
					"internalType": "string",
					"name": "_sId",
					"type": "string"
				}
			],
			"name": "getSurveyResponsesBySurvey",
			"outputs": [
				{
					"internalType": "string[][]",
					"name": "",
					"type": "string[][]"
				}
			],
			"stateMutability": "view",
			"type": "function",
			"constant": true
		}
	],
	"bytecode": "0x608060405234801561001057600080fd5b5061002d61002261004c60201b60201c565b61005460201b60201c565b60008060146101000a81548160ff021916908315150217905550610118565b600033905090565b60008060009054906101000a900473ffffffffffffffffffffffffffffffffffffffff169050816000806101000a81548173ffffffffffffffffffffffffffffffffffffffff021916908373ffffffffffffffffffffffffffffffffffffffff1602179055508173ffffffffffffffffffffffffffffffffffffffff168173ffffffffffffffffffffffffffffffffffffffff167f8be0079c531659141344cd1fd0a4f28419497f9722a3daafe3b4186f6b6457e060405160405180910390a35050565b611a3f806101276000396000f3fe60806040526004361061009c5760003560e01c80637d14e388116100645780637d14e388146101745780638456cb59146101905780638da5cb5b146101a7578063e63ab1e9146101d2578063ed35d7e5146101fd578063f2fde38b1461023b5761009c565b80633960f465146100a15780633f4ba83a146100de57806359a8c20f146100f55780635c975abb14610132578063715018a61461015d575b600080fd5b3480156100ad57600080fd5b506100c860048036038101906100c391906110ea565b610264565b6040516100d5919061151a565b60405180910390f35b3480156100ea57600080fd5b506100f361051d565b005b34801561010157600080fd5b5061011c60048036038101906101179190611192565b6105a3565b604051610129919061151a565b60405180910390f35b34801561013e57600080fd5b5061014761082b565b604051610154919061153c565b60405180910390f35b34801561016957600080fd5b50610172610841565b005b61018e60048036038101906101899190611113565b6108c9565b005b34801561019c57600080fd5b506101a56109b3565b005b3480156101b357600080fd5b506101bc610a39565b6040516101c991906114cf565b60405180910390f35b3480156101de57600080fd5b506101e7610a62565b6040516101f49190611557565b60405180910390f35b34801561020957600080fd5b50610224600480360381019061021f91906111d3565b610a86565b6040516102329291906114ea565b60405180910390f35b34801561024757600080fd5b50610262600480360381019061025d91906110ea565b610b62565b005b6060600060018054905067ffffffffffffffff8111156102ad577f4e487b7100000000000000000000000000000000000000000000000000000000600052604160045260246000fd5b6040519080825280602002602001820160405280156102e057816020015b60608152602001906001900390816102cb5790505b5090506000805b600180549050811015610512578473ffffffffffffffffffffffffffffffffffffffff1660018281548110610345577f4e487b7100000000000000000000000000000000000000000000000000000000600052603260045260246000fd5b906000526020600020906003020160000160009054906101000a900473ffffffffffffffffffffffffffffffffffffffff1673ffffffffffffffffffffffffffffffffffffffff1614156104ff57600181815481106103cd577f4e487b7100000000000000000000000000000000000000000000000000000000600052603260045260246000fd5b9060005260206000209060030201600101805480602002602001604051908101604052809291908181526020016000905b828210156104aa57838290600052602060002001805461041d906117c7565b80601f0160208091040260200160405190810160405280929190818152602001828054610449906117c7565b80156104965780601f1061046b57610100808354040283529160200191610496565b820191906000526020600020905b81548152906001019060200180831161047957829003601f168201915b5050505050815260200190600101906103fe565b505050508383806104ba9061182a565b9450815181106104f3577f4e487b7100000000000000000000000000000000000000000000000000000000600052603260045260246000fd5b60200260200101819052505b808061050a9061182a565b9150506102e7565b508192505050919050565b610525610c5a565b73ffffffffffffffffffffffffffffffffffffffff16610543610a39565b73ffffffffffffffffffffffffffffffffffffffff1614610599576040517f08c379a0000000000000000000000000000000000000000000000000000000008152600401610590906115d2565b60405180910390fd5b6105a1610c62565b565b6060600060018054905067ffffffffffffffff8111156105ec577f4e487b7100000000000000000000000000000000000000000000000000000000600052604160045260246000fd5b60405190808252806020026020018201604052801561061f57816020015b606081526020019060019003908161060a5790505b5090506000805b60018054905081101561082057848051906020012060018281548110610675577f4e487b7100000000000000000000000000000000000000000000000000000000600052603260045260246000fd5b906000526020600020906003020160020160405161069391906114b8565b6040518091039020141561080d57600181815481106106db577f4e487b7100000000000000000000000000000000000000000000000000000000600052603260045260246000fd5b9060005260206000209060030201600101805480602002602001604051908101604052809291908181526020016000905b828210156107b857838290600052602060002001805461072b906117c7565b80601f0160208091040260200160405190810160405280929190818152602001828054610757906117c7565b80156107a45780601f10610779576101008083540402835291602001916107a4565b820191906000526020600020905b81548152906001019060200180831161078757829003601f168201915b50505050508152602001906001019061070c565b505050508383806107c89061182a565b945081518110610801577f4e487b7100000000000000000000000000000000000000000000000000000000600052603260045260246000fd5b60200260200101819052505b80806108189061182a565b915050610626565b508192505050919050565b60008060149054906101000a900460ff16905090565b610849610c5a565b73ffffffffffffffffffffffffffffffffffffffff16610867610a39565b73ffffffffffffffffffffffffffffffffffffffff16146108bd576040517f08c379a00000000000000000000000000000000000000000000000000000000081526004016108b4906115d2565b60405180910390fd5b6108c76000610d03565b565b600060405180606001604052808573ffffffffffffffffffffffffffffffffffffffff168152602001848152602001838152509050600181908060018154018082558091505060019003906000526020600020906003020160009091909190915060008201518160000160006101000a81548173ffffffffffffffffffffffffffffffffffffffff021916908373ffffffffffffffffffffffffffffffffffffffff160217905550602082015181600101908051906020019061098d929190610e6a565b5060408201518160020190805190602001906109aa929190610eca565b50505050505050565b6109bb610c5a565b73ffffffffffffffffffffffffffffffffffffffff166109d9610a39565b73ffffffffffffffffffffffffffffffffffffffff1614610a2f576040517f08c379a0000000000000000000000000000000000000000000000000000000008152600401610a26906115d2565b60405180910390fd5b610a37610dc7565b565b60008060009054906101000a900473ffffffffffffffffffffffffffffffffffffffff16905090565b7f65d7a28e3265b37a6474929f336521b332c1681b933f6cb9f3376673440d862a81565b60018181548110610a9657600080fd5b90600052602060002090600302016000915090508060000160009054906101000a900473ffffffffffffffffffffffffffffffffffffffff1690806002018054610adf906117c7565b80601f0160208091040260200160405190810160405280929190818152602001828054610b0b906117c7565b8015610b585780601f10610b2d57610100808354040283529160200191610b58565b820191906000526020600020905b815481529060010190602001808311610b3b57829003601f168201915b5050505050905082565b610b6a610c5a565b73ffffffffffffffffffffffffffffffffffffffff16610b88610a39565b73ffffffffffffffffffffffffffffffffffffffff1614610bde576040517f08c379a0000000000000000000000000000000000000000000000000000000008152600401610bd5906115d2565b60405180910390fd5b600073ffffffffffffffffffffffffffffffffffffffff168173ffffffffffffffffffffffffffffffffffffffff161415610c4e576040517f08c379a0000000000000000000000000000000000000000000000000000000008152600401610c4590611592565b60405180910390fd5b610c5781610d03565b50565b600033905090565b610c6a61082b565b610ca9576040517f08c379a0000000000000000000000000000000000000000000000000000000008152600401610ca090611572565b60405180910390fd5b60008060146101000a81548160ff0219169083151502179055507f5db9ee0a495bf2e6ff9c91a7834c1ba4fdd244a5e8aa4e537bd38aeae4b073aa610cec610c5a565b604051610cf991906114cf565b60405180910390a1565b60008060009054906101000a900473ffffffffffffffffffffffffffffffffffffffff169050816000806101000a81548173ffffffffffffffffffffffffffffffffffffffff021916908373ffffffffffffffffffffffffffffffffffffffff1602179055508173ffffffffffffffffffffffffffffffffffffffff168173ffffffffffffffffffffffffffffffffffffffff167f8be0079c531659141344cd1fd0a4f28419497f9722a3daafe3b4186f6b6457e060405160405180910390a35050565b610dcf61082b565b15610e0f576040517f08c379a0000000000000000000000000000000000000000000000000000000008152600401610e06906115b2565b60405180910390fd5b6001600060146101000a81548160ff0219169083151502179055507f62e78cea01bee320cd4e420270b5ea74000d11b0c9f74754ebdbfc544b05a258610e53610c5a565b604051610e6091906114cf565b60405180910390a1565b828054828255906000526020600020908101928215610eb9579160200282015b82811115610eb8578251829080519060200190610ea8929190610eca565b5091602001919060010190610e8a565b5b509050610ec69190610f50565b5090565b828054610ed6906117c7565b90600052602060002090601f016020900481019282610ef85760008555610f3f565b82601f10610f1157805160ff1916838001178555610f3f565b82800160010185558215610f3f579182015b82811115610f3e578251825591602001919060010190610f23565b5b509050610f4c9190610f74565b5090565b5b80821115610f705760008181610f679190610f91565b50600101610f51565b5090565b5b80821115610f8d576000816000905550600101610f75565b5090565b508054610f9d906117c7565b6000825580601f10610faf5750610fce565b601f016020900490600052602060002090810190610fcd9190610f74565b5b50565b6000610fe4610fdf84611617565b6115f2565b9050808382526020820190508260005b85811015611024578135850161100a88826110ab565b845260208401935060208301925050600181019050610ff4565b5050509392505050565b600061104161103c84611643565b6115f2565b90508281526020810184848401111561105957600080fd5b611064848285611785565b509392505050565b60008135905061107b816119db565b92915050565b600082601f83011261109257600080fd5b81356110a2848260208601610fd1565b91505092915050565b600082601f8301126110bc57600080fd5b81356110cc84826020860161102e565b91505092915050565b6000813590506110e4816119f2565b92915050565b6000602082840312156110fc57600080fd5b600061110a8482850161106c565b91505092915050565b60008060006060848603121561112857600080fd5b60006111368682870161106c565b935050602084013567ffffffffffffffff81111561115357600080fd5b61115f86828701611081565b925050604084013567ffffffffffffffff81111561117c57600080fd5b611188868287016110ab565b9150509250925092565b6000602082840312156111a457600080fd5b600082013567ffffffffffffffff8111156111be57600080fd5b6111ca848285016110ab565b91505092915050565b6000602082840312156111e557600080fd5b60006111f3848285016110d5565b91505092915050565b600061120883836112a8565b905092915050565b600061121c83836113ba565b905092915050565b61122d81611733565b82525050565b600061123e826116a9565b61124881856116e4565b93508360208202850161125a85611674565b8060005b85811015611296578484038952815161127785826111fc565b9450611282836116ca565b925060208a0199505060018101905061125e565b50829750879550505050505092915050565b60006112b3826116b4565b6112bd81856116f5565b9350836020820285016112cf85611684565b8060005b8581101561130b57848403895281516112ec8582611210565b94506112f7836116d7565b925060208a019950506001810190506112d3565b50829750879550505050505092915050565b61132681611745565b82525050565b61133581611751565b82525050565b60008154611348816117c7565b6113528186611706565b9450600182166000811461136d576001811461137e576113b1565b60ff198316865281860193506113b1565b61138785611694565b60005b838110156113a95781548189015260018201915060208101905061138a565b838801955050505b50505092915050565b60006113c5826116bf565b6113cf8185611711565b93506113df818560208601611794565b6113e881611900565b840191505092915050565b60006113fe826116bf565b6114088185611722565b9350611418818560208601611794565b61142181611900565b840191505092915050565b6000611439601483611722565b915061144482611911565b602082019050919050565b600061145c602683611722565b91506114678261193a565b604082019050919050565b600061147f601083611722565b915061148a82611989565b602082019050919050565b60006114a2602083611722565b91506114ad826119b2565b602082019050919050565b60006114c4828461133b565b915081905092915050565b60006020820190506114e46000830184611224565b92915050565b60006040820190506114ff6000830185611224565b818103602083015261151181846113f3565b90509392505050565b600060208201905081810360008301526115348184611233565b905092915050565b6000602082019050611551600083018461131d565b92915050565b600060208201905061156c600083018461132c565b92915050565b6000602082019050818103600083015261158b8161142c565b9050919050565b600060208201905081810360008301526115ab8161144f565b9050919050565b600060208201905081810360008301526115cb81611472565b9050919050565b600060208201905081810360008301526115eb81611495565b9050919050565b60006115fc61160d565b905061160882826117f9565b919050565b6000604051905090565b600067ffffffffffffffff821115611632576116316118d1565b5b602082029050602081019050919050565b600067ffffffffffffffff82111561165e5761165d6118d1565b5b61166782611900565b9050602081019050919050565b6000819050602082019050919050565b6000819050602082019050919050565b60008190508160005260206000209050919050565b600081519050919050565b600081519050919050565b600081519050919050565b6000602082019050919050565b6000602082019050919050565b600082825260208201905092915050565b600082825260208201905092915050565b600081905092915050565b600082825260208201905092915050565b600082825260208201905092915050565b600061173e8261175b565b9050919050565b60008115159050919050565b6000819050919050565b600073ffffffffffffffffffffffffffffffffffffffff82169050919050565b6000819050919050565b82818337600083830152505050565b60005b838110156117b2578082015181840152602081019050611797565b838111156117c1576000848401525b50505050565b600060028204905060018216806117df57607f821691505b602082108114156117f3576117f26118a2565b5b50919050565b61180282611900565b810181811067ffffffffffffffff82111715611821576118206118d1565b5b80604052505050565b60006118358261177b565b91507fffffffffffffffffffffffffffffffffffffffffffffffffffffffffffffffff82141561186857611867611873565b5b600182019050919050565b7f4e487b7100000000000000000000000000000000000000000000000000000000600052601160045260246000fd5b7f4e487b7100000000000000000000000000000000000000000000000000000000600052602260045260246000fd5b7f4e487b7100000000000000000000000000000000000000000000000000000000600052604160045260246000fd5b6000601f19601f8301169050919050565b7f5061757361626c653a206e6f7420706175736564000000000000000000000000600082015250565b7f4f776e61626c653a206e6577206f776e657220697320746865207a65726f206160008201527f6464726573730000000000000000000000000000000000000000000000000000602082015250565b7f5061757361626c653a2070617573656400000000000000000000000000000000600082015250565b7f4f776e61626c653a2063616c6c6572206973206e6f7420746865206f776e6572600082015250565b6119e481611733565b81146119ef57600080fd5b50565b6119fb8161177b565b8114611a0657600080fd5b5056fea26469706673582212202a55d9b99ea1c9e1acf5f7dd041d8cce5d4cac6ce7f82830211ee78812ed972464736f6c63430008030033",
	"immutableReferences": {},
	"source": "//SPDX-License-Identifier: Unlicensed\n/// @custom:security-contact krish.mehta@uwaterloo.ca\n\npragma solidity ^0.8.0;\n\n//import \"hardhat/console.sol\";\nimport \"@openzeppelin/contracts/access/Ownable.sol\";\nimport \"@openzeppelin/contracts/security/Pausable.sol\";\n\ncontract UserSurveyResponses is Ownable, Pausable {\n    /**\n     * @dev Set who may pause the contract\n     */\n    bytes32 public constant PAUSER_ROLE = keccak256(\"PAUSER_ROLE\");\n\n    constructor() {}\n\n    /**\n     * @dev pauses the contract\n     */\n    function pause() public onlyOwner {\n        _pause();\n    }\n\n    /**\n     * @dev unpauses the contract\n     */\n    function unpause() public onlyOwner {\n        _unpause();\n    }\n\n    struct SurveyResponse {\n        address user;\n        string[] response;\n        string sId;\n    }\n\n    SurveyResponse[] public responses;\n\n    function addSurveyResponse(\n        address _user,\n        string[] memory _response,\n        string memory _sId\n    ) public payable {\n        SurveyResponse memory surveyForm = SurveyResponse(\n            _user,\n            _response,\n            _sId\n        );\n        responses.push(surveyForm);\n    }\n\n    function getSurveyResponsesByUser(address _user)\n        public\n        view\n        returns (string[][] memory)\n    {\n        string[][] memory allResponses = new string[][](responses.length);\n        uint256 k = 0;\n        for (uint256 i = 0; i < responses.length; i++) {\n            if (responses[i].user == _user) {\n                allResponses[k++] = responses[i].response;\n            }\n        }\n        return allResponses;\n    }\n\n    function getSurveyResponsesBySurvey(string memory _sId)\n        public\n        view\n        returns (string[][] memory)\n    {\n        string[][] memory allResponses = new string[][](responses.length);\n        uint256 k = 0;\n        for (uint256 i = 0; i < responses.length; i++) {\n            if (keccak256(bytes(responses[i].sId)) == keccak256(bytes(_sId))) {\n                allResponses[k++] = responses[i].response;\n            }\n        }\n        return allResponses;\n    }\n}\n",
	"sourcePath": "/home/djkesu/Desktop/Projects/SmartWaterlooEth/contracts/UserSurveyResponses.sol",
	"compiler": {
		"name": "solc",
		"version": "0.8.3+commit.8d00100c.Emscripten.clang"
	},
	"schemaVersion": "3.4.5",
	"updatedAt": "2022-04-15T04:44:54.444Z",
	"networkType": "ethereum",
	"devdoc": {
		"kind": "dev",
		"methods": {
			"owner()": {
				"details": "Returns the address of the current owner."
			},
			"pause()": {
				"details": "pauses the contract"
			},
			"paused()": {
				"details": "Returns true if the contract is paused, and false otherwise."
			},
			"renounceOwnership()": {
				"details": "Leaves the contract without owner. It will not be possible to call `onlyOwner` functions anymore. Can only be called by the current owner. NOTE: Renouncing ownership will leave the contract without an owner, thereby removing any functionality that is only available to the owner."
			},
			"transferOwnership(address)": {
				"details": "Transfers ownership of the contract to a new account (`newOwner`). Can only be called by the current owner."
			},
			"unpause()": {
				"details": "unpauses the contract"
			}
		},
		"stateVariables": {
			"PAUSER_ROLE": {
				"details": "Set who may pause the contract"
			}
		},
		"version": 1
	},
	"userdoc": {
		"kind": "user",
		"methods": {},
		"version": 1
	}
}